{
  "_format": "hh-sol-artifact-1",
  "contractName": "MageToken",
  "sourceName": "contracts/MageToken.sol",
  "abi": [
    {
      "inputs": [],
      "stateMutability": "nonpayable",
      "type": "constructor"
    },
    {
      "anonymous": false,
      "inputs": [
        {
          "indexed": true,
          "internalType": "address",
          "name": "owner",
          "type": "address"
        },
        {
          "indexed": true,
          "internalType": "address",
          "name": "approved",
          "type": "address"
        },
        {
          "indexed": true,
          "internalType": "uint256",
          "name": "tokenId",
          "type": "uint256"
        }
      ],
      "name": "Approval",
      "type": "event"
    },
    {
      "anonymous": false,
      "inputs": [
        {
          "indexed": true,
          "internalType": "address",
          "name": "owner",
          "type": "address"
        },
        {
          "indexed": true,
          "internalType": "address",
          "name": "operator",
          "type": "address"
        },
        {
          "indexed": false,
          "internalType": "bool",
          "name": "approved",
          "type": "bool"
        }
      ],
      "name": "ApprovalForAll",
      "type": "event"
    },
    {
      "anonymous": false,
      "inputs": [
        {
          "indexed": true,
          "internalType": "address",
          "name": "owner",
          "type": "address"
        },
        {
          "indexed": false,
          "internalType": "uint256",
          "name": "id",
          "type": "uint256"
        },
        {
          "indexed": false,
          "internalType": "uint256",
          "name": "dna",
          "type": "uint256"
        }
      ],
      "name": "NewMage",
      "type": "event"
    },
    {
      "anonymous": false,
      "inputs": [
        {
          "indexed": true,
          "internalType": "address",
          "name": "previousOwner",
          "type": "address"
        },
        {
          "indexed": true,
          "internalType": "address",
          "name": "newOwner",
          "type": "address"
        }
      ],
      "name": "OwnershipTransferred",
      "type": "event"
    },
    {
      "anonymous": false,
      "inputs": [
        {
          "indexed": false,
          "internalType": "address",
          "name": "account",
          "type": "address"
        }
      ],
      "name": "Paused",
      "type": "event"
    },
    {
      "anonymous": false,
      "inputs": [
        {
          "indexed": true,
          "internalType": "address",
          "name": "from",
          "type": "address"
        },
        {
          "indexed": true,
          "internalType": "address",
          "name": "to",
          "type": "address"
        },
        {
          "indexed": true,
          "internalType": "uint256",
          "name": "tokenId",
          "type": "uint256"
        }
      ],
      "name": "Transfer",
      "type": "event"
    },
    {
      "anonymous": false,
      "inputs": [
        {
          "indexed": false,
          "internalType": "address",
          "name": "account",
          "type": "address"
        }
      ],
      "name": "Unpaused",
      "type": "event"
    },
    {
      "inputs": [
        {
          "internalType": "address",
          "name": "to",
          "type": "address"
        },
        {
          "internalType": "uint256",
          "name": "tokenId",
          "type": "uint256"
        }
      ],
      "name": "approve",
      "outputs": [],
      "stateMutability": "nonpayable",
      "type": "function"
    },
    {
      "inputs": [
        {
          "internalType": "address",
          "name": "owner",
          "type": "address"
        }
      ],
      "name": "balanceOf",
      "outputs": [
        {
          "internalType": "uint256",
          "name": "",
          "type": "uint256"
        }
      ],
      "stateMutability": "view",
      "type": "function"
    },
    {
      "inputs": [
        {
          "internalType": "string",
          "name": "_name",
          "type": "string"
        },
        {
          "internalType": "string",
          "name": "tokenURI",
          "type": "string"
        }
      ],
      "name": "createRandomMage",
      "outputs": [],
      "stateMutability": "payable",
      "type": "function"
    },
    {
      "inputs": [
        {
          "internalType": "uint256",
          "name": "tokenId",
          "type": "uint256"
        }
      ],
      "name": "getApproved",
      "outputs": [
        {
          "internalType": "address",
          "name": "",
          "type": "address"
        }
      ],
      "stateMutability": "view",
      "type": "function"
    },
    {
      "inputs": [],
      "name": "getMages",
      "outputs": [
        {
          "components": [
            {
              "internalType": "string",
              "name": "name",
              "type": "string"
            },
            {
              "internalType": "uint256",
              "name": "id",
              "type": "uint256"
            },
            {
              "internalType": "uint256",
              "name": "dna",
              "type": "uint256"
            },
            {
              "internalType": "uint8",
              "name": "level",
              "type": "uint8"
            },
            {
              "internalType": "uint8",
              "name": "rarity",
              "type": "uint8"
            }
          ],
          "internalType": "struct MageToken.Mage[]",
          "name": "",
          "type": "tuple[]"
        }
      ],
      "stateMutability": "view",
      "type": "function"
    },
    {
      "inputs": [],
      "name": "getMintingPrice",
      "outputs": [
        {
          "internalType": "uint256",
          "name": "",
          "type": "uint256"
        }
      ],
      "stateMutability": "view",
      "type": "function"
    },
    {
      "inputs": [
        {
          "internalType": "address",
          "name": "_owner",
          "type": "address"
        }
      ],
      "name": "getOwnerMages",
      "outputs": [
        {
          "components": [
            {
              "internalType": "string",
              "name": "name",
              "type": "string"
            },
            {
              "internalType": "uint256",
              "name": "id",
              "type": "uint256"
            },
            {
              "internalType": "uint256",
              "name": "dna",
              "type": "uint256"
            },
            {
              "internalType": "uint8",
              "name": "level",
              "type": "uint8"
            },
            {
              "internalType": "uint8",
              "name": "rarity",
              "type": "uint8"
            }
          ],
          "internalType": "struct MageToken.Mage[]",
          "name": "",
          "type": "tuple[]"
        }
      ],
      "stateMutability": "view",
      "type": "function"
    },
    {
      "inputs": [
        {
          "internalType": "address",
          "name": "owner",
          "type": "address"
        },
        {
          "internalType": "address",
          "name": "operator",
          "type": "address"
        }
      ],
      "name": "isApprovedForAll",
      "outputs": [
        {
          "internalType": "bool",
          "name": "",
          "type": "bool"
        }
      ],
      "stateMutability": "view",
      "type": "function"
    },
    {
      "inputs": [
        {
          "internalType": "uint256",
          "name": "",
          "type": "uint256"
        }
      ],
      "name": "mages",
      "outputs": [
        {
          "internalType": "string",
          "name": "name",
          "type": "string"
        },
        {
          "internalType": "uint256",
          "name": "id",
          "type": "uint256"
        },
        {
          "internalType": "uint256",
          "name": "dna",
          "type": "uint256"
        },
        {
          "internalType": "uint8",
          "name": "level",
          "type": "uint8"
        },
        {
          "internalType": "uint8",
          "name": "rarity",
          "type": "uint8"
        }
      ],
      "stateMutability": "view",
      "type": "function"
    },
    {
      "inputs": [],
      "name": "name",
      "outputs": [
        {
          "internalType": "string",
          "name": "",
          "type": "string"
        }
      ],
      "stateMutability": "view",
      "type": "function"
    },
    {
      "inputs": [],
      "name": "owner",
      "outputs": [
        {
          "internalType": "address",
          "name": "",
          "type": "address"
        }
      ],
      "stateMutability": "view",
      "type": "function"
    },
    {
      "inputs": [
        {
          "internalType": "uint256",
          "name": "tokenId",
          "type": "uint256"
        }
      ],
      "name": "ownerOf",
      "outputs": [
        {
          "internalType": "address",
          "name": "",
          "type": "address"
        }
      ],
      "stateMutability": "view",
      "type": "function"
    },
    {
      "inputs": [],
      "name": "pause",
      "outputs": [],
      "stateMutability": "nonpayable",
      "type": "function"
    },
    {
      "inputs": [],
      "name": "paused",
      "outputs": [
        {
          "internalType": "bool",
          "name": "",
          "type": "bool"
        }
      ],
      "stateMutability": "view",
      "type": "function"
    },
    {
      "inputs": [],
      "name": "renounceOwnership",
      "outputs": [],
      "stateMutability": "nonpayable",
      "type": "function"
    },
    {
      "inputs": [
        {
          "internalType": "address",
          "name": "from",
          "type": "address"
        },
        {
          "internalType": "address",
          "name": "to",
          "type": "address"
        },
        {
          "internalType": "uint256",
          "name": "tokenId",
          "type": "uint256"
        }
      ],
      "name": "safeTransferFrom",
      "outputs": [],
      "stateMutability": "nonpayable",
      "type": "function"
    },
    {
      "inputs": [
        {
          "internalType": "address",
          "name": "from",
          "type": "address"
        },
        {
          "internalType": "address",
          "name": "to",
          "type": "address"
        },
        {
          "internalType": "uint256",
          "name": "tokenId",
          "type": "uint256"
        },
        {
          "internalType": "bytes",
          "name": "_data",
          "type": "bytes"
        }
      ],
      "name": "safeTransferFrom",
      "outputs": [],
      "stateMutability": "nonpayable",
      "type": "function"
    },
    {
      "inputs": [
        {
          "internalType": "address",
          "name": "operator",
          "type": "address"
        },
        {
          "internalType": "bool",
          "name": "approved",
          "type": "bool"
        }
      ],
      "name": "setApprovalForAll",
      "outputs": [],
      "stateMutability": "nonpayable",
      "type": "function"
    },
    {
      "inputs": [
        {
          "internalType": "bytes4",
          "name": "interfaceId",
          "type": "bytes4"
        }
      ],
      "name": "supportsInterface",
      "outputs": [
        {
          "internalType": "bool",
          "name": "",
          "type": "bool"
        }
      ],
      "stateMutability": "view",
      "type": "function"
    },
    {
      "inputs": [],
      "name": "symbol",
      "outputs": [
        {
          "internalType": "string",
          "name": "",
          "type": "string"
        }
      ],
      "stateMutability": "view",
      "type": "function"
    },
    {
      "inputs": [
        {
          "internalType": "uint256",
          "name": "tokenId",
          "type": "uint256"
        }
      ],
      "name": "tokenURI",
      "outputs": [
        {
          "internalType": "string",
          "name": "",
          "type": "string"
        }
      ],
      "stateMutability": "view",
      "type": "function"
    },
    {
      "inputs": [
        {
          "internalType": "address",
          "name": "from",
          "type": "address"
        },
        {
          "internalType": "address",
          "name": "to",
          "type": "address"
        },
        {
          "internalType": "uint256",
          "name": "tokenId",
          "type": "uint256"
        }
      ],
      "name": "transferFrom",
      "outputs": [],
      "stateMutability": "nonpayable",
      "type": "function"
    },
    {
      "inputs": [
        {
          "internalType": "address",
          "name": "newOwner",
          "type": "address"
        }
      ],
      "name": "transferOwnership",
      "outputs": [],
      "stateMutability": "nonpayable",
      "type": "function"
    },
    {
      "inputs": [],
      "name": "unpause",
      "outputs": [],
      "stateMutability": "nonpayable",
      "type": "function"
    },
    {
      "inputs": [
        {
          "internalType": "uint256",
          "name": "_fee",
          "type": "uint256"
        }
      ],
      "name": "updateFee",
      "outputs": [],
      "stateMutability": "nonpayable",
      "type": "function"
    },
    {
      "inputs": [],
      "name": "withdraw",
      "outputs": [],
      "stateMutability": "payable",
      "type": "function"
    }
  ],
  "bytecode": "0x6080604052652d79883d20006009553480156200001b57600080fd5b506040518060400160405280600481526020017f4d616765000000000000000000000000000000000000000000000000000000008152506040518060400160405280600381526020017f4d474500000000000000000000000000000000000000000000000000000000008152508160009080519060200190620000a0929190620001cb565b508060019080519060200190620000b9929190620001cb565b5050506000600760006101000a81548160ff021916908315150217905550620000f7620000eb620000fd60201b60201c565b6200010560201b60201c565b620002e0565b600033905090565b6000600760019054906101000a900473ffffffffffffffffffffffffffffffffffffffff16905081600760016101000a81548173ffffffffffffffffffffffffffffffffffffffff021916908373ffffffffffffffffffffffffffffffffffffffff1602179055508173ffffffffffffffffffffffffffffffffffffffff168173ffffffffffffffffffffffffffffffffffffffff167f8be0079c531659141344cd1fd0a4f28419497f9722a3daafe3b4186f6b6457e060405160405180910390a35050565b828054620001d9906200027b565b90600052602060002090601f016020900481019282620001fd576000855562000249565b82601f106200021857805160ff191683800117855562000249565b8280016001018555821562000249579182015b82811115620002485782518255916020019190600101906200022b565b5b5090506200025891906200025c565b5090565b5b80821115620002775760008160009055506001016200025d565b5090565b600060028204905060018216806200029457607f821691505b60208210811415620002ab57620002aa620002b1565b5b50919050565b7f4e487b7100000000000000000000000000000000000000000000000000000000600052602260045260246000fd5b6140ab80620002f06000396000f3fe6080604052600436106101815760003560e01c8063715018a6116100d1578063984e68d61161008a578063c87b56dd11610064578063c87b56dd1461051a578063d0269e9414610557578063e985e9c514610598578063f2fde38b146105d557610181565b8063984e68d6146104ac578063a22cb465146104c8578063b88d4fde146104f157610181565b8063715018a6146103d457806377d24762146103eb5780638456cb59146104165780638da5cb5b1461042d5780639012c4a81461045857806395d89b411461048157610181565b80633ccfd60b1161013e5780635c975abb116101185780635c975abb146103045780636352211e1461032f578063674c48851461036c57806370a082311461039757610181565b80633ccfd60b146102ba5780633f4ba83a146102c457806342842e0e146102db57610181565b806301ffc9a71461018657806305389eaf146101c357806306fdde0314610200578063081812fc1461022b578063095ea7b31461026857806323b872dd14610291575b600080fd5b34801561019257600080fd5b506101ad60048036038101906101a89190612c20565b6105fe565b6040516101ba91906132ff565b60405180910390f35b3480156101cf57600080fd5b506101ea60048036038101906101e59190612a79565b6106e0565b6040516101f791906132dd565b60405180910390f35b34801561020c57600080fd5b50610215610959565b604051610222919061331a565b60405180910390f35b34801561023757600080fd5b50610252600480360381019061024d9190612cde565b6109eb565b60405161025f9190613276565b60405180910390f35b34801561027457600080fd5b5061028f600480360381019061028a9190612be4565b610a70565b005b34801561029d57600080fd5b506102b860048036038101906102b39190612ade565b610b88565b005b6102c2610be8565b005b3480156102d057600080fd5b506102d9610cba565b005b3480156102e757600080fd5b5061030260048036038101906102fd9190612ade565b610d40565b005b34801561031057600080fd5b50610319610d60565b60405161032691906132ff565b60405180910390f35b34801561033b57600080fd5b5061035660048036038101906103519190612cde565b610d77565b6040516103639190613276565b60405180910390f35b34801561037857600080fd5b50610381610e29565b60405161038e91906132dd565b60405180910390f35b3480156103a357600080fd5b506103be60048036038101906103b99190612a79565b610f68565b6040516103cb9190613616565b60405180910390f35b3480156103e057600080fd5b506103e9611020565b005b3480156103f757600080fd5b506104006110a8565b60405161040d9190613616565b60405180910390f35b34801561042257600080fd5b5061042b6110b2565b005b34801561043957600080fd5b50610442611138565b60405161044f9190613276565b60405180910390f35b34801561046457600080fd5b5061047f600480360381019061047a9190612cde565b611162565b005b34801561048d57600080fd5b506104966111e8565b6040516104a3919061331a565b60405180910390f35b6104c660048036038101906104c19190612c72565b61127a565b005b3480156104d457600080fd5b506104ef60048036038101906104ea9190612ba8565b6112df565b005b3480156104fd57600080fd5b5061051860048036038101906105139190612b2d565b6112f5565b005b34801561052657600080fd5b50610541600480360381019061053c9190612cde565b611357565b60405161054e919061331a565b60405180910390f35b34801561056357600080fd5b5061057e60048036038101906105799190612cde565b6114a9565b60405161058f95949392919061333c565b60405180910390f35b3480156105a457600080fd5b506105bf60048036038101906105ba9190612aa2565b611591565b6040516105cc91906132ff565b60405180910390f35b3480156105e157600080fd5b506105fc60048036038101906105f79190612a79565b611625565b005b60007f80ac58cd000000000000000000000000000000000000000000000000000000007bffffffffffffffffffffffffffffffffffffffffffffffffffffffff1916827bffffffffffffffffffffffffffffffffffffffffffffffffffffffff191614806106c957507f5b5e139f000000000000000000000000000000000000000000000000000000007bffffffffffffffffffffffffffffffffffffffffffffffffffffffff1916827bffffffffffffffffffffffffffffffffffffffffffffffffffffffff1916145b806106d957506106d88261171d565b5b9050919050565b606060006106ed83610f68565b67ffffffffffffffff81111561072c577f4e487b7100000000000000000000000000000000000000000000000000000000600052604160045260246000fd5b60405190808252806020026020018201604052801561076557816020015b610752612868565b81526020019060019003908161074a5790505b5090506000805b600a8054905081101561094e578473ffffffffffffffffffffffffffffffffffffffff1661079982610d77565b73ffffffffffffffffffffffffffffffffffffffff16141561093b57600a81815481106107ef577f4e487b7100000000000000000000000000000000000000000000000000000000600052603260045260246000fd5b90600052602060002090600402016040518060a0016040529081600082018054610818906138ec565b80601f0160208091040260200160405190810160405280929190818152602001828054610844906138ec565b80156108915780601f1061086657610100808354040283529160200191610891565b820191906000526020600020905b81548152906001019060200180831161087457829003601f168201915b5050505050815260200160018201548152602001600282015481526020016003820160009054906101000a900460ff1660ff1660ff1681526020016003820160019054906101000a900460ff1660ff1660ff1681525050838381518110610921577f4e487b7100000000000000000000000000000000000000000000000000000000600052603260045260246000fd5b602002602001018190525081806109379061394f565b9250505b80806109469061394f565b91505061076c565b508192505050919050565b606060008054610968906138ec565b80601f0160208091040260200160405190810160405280929190818152602001828054610994906138ec565b80156109e15780601f106109b6576101008083540402835291602001916109e1565b820191906000526020600020905b8154815290600101906020018083116109c457829003601f168201915b5050505050905090565b60006109f682611787565b610a35576040517f08c379a0000000000000000000000000000000000000000000000000000000008152600401610a2c90613556565b60405180910390fd5b6004600083815260200190815260200160002060009054906101000a900473ffffffffffffffffffffffffffffffffffffffff169050919050565b6000610a7b82610d77565b90508073ffffffffffffffffffffffffffffffffffffffff168373ffffffffffffffffffffffffffffffffffffffff161415610aec576040517f08c379a0000000000000000000000000000000000000000000000000000000008152600401610ae3906135d6565b60405180910390fd5b8073ffffffffffffffffffffffffffffffffffffffff16610b0b6117f3565b73ffffffffffffffffffffffffffffffffffffffff161480610b3a5750610b3981610b346117f3565b611591565b5b610b79576040517f08c379a0000000000000000000000000000000000000000000000000000000008152600401610b7090613496565b60405180910390fd5b610b8383836117fb565b505050565b610b99610b936117f3565b826118b4565b610bd8576040517f08c379a0000000000000000000000000000000000000000000000000000000008152600401610bcf906135f6565b60405180910390fd5b610be3838383611992565b505050565b610bf06117f3565b73ffffffffffffffffffffffffffffffffffffffff16610c0e611138565b73ffffffffffffffffffffffffffffffffffffffff1614610c64576040517f08c379a0000000000000000000000000000000000000000000000000000000008152600401610c5b90613576565b60405180910390fd5b6000610c6e611138565b90508073ffffffffffffffffffffffffffffffffffffffff166108fc479081150290604051600060405180830381858888f19350505050158015610cb6573d6000803e3d6000fd5b5050565b610cc26117f3565b73ffffffffffffffffffffffffffffffffffffffff16610ce0611138565b73ffffffffffffffffffffffffffffffffffffffff1614610d36576040517f08c379a0000000000000000000000000000000000000000000000000000000008152600401610d2d90613576565b60405180910390fd5b610d3e611bee565b565b610d5b838383604051806020016040528060008152506112f5565b505050565b6000600760009054906101000a900460ff16905090565b6000806002600084815260200190815260200160002060009054906101000a900473ffffffffffffffffffffffffffffffffffffffff169050600073ffffffffffffffffffffffffffffffffffffffff168173ffffffffffffffffffffffffffffffffffffffff161415610e20576040517f08c379a0000000000000000000000000000000000000000000000000000000008152600401610e17906134d6565b60405180910390fd5b80915050919050565b6060600a805480602002602001604051908101604052809291908181526020016000905b82821015610f5f57838290600052602060002090600402016040518060a0016040529081600082018054610e80906138ec565b80601f0160208091040260200160405190810160405280929190818152602001828054610eac906138ec565b8015610ef95780601f10610ece57610100808354040283529160200191610ef9565b820191906000526020600020905b815481529060010190602001808311610edc57829003601f168201915b5050505050815260200160018201548152602001600282015481526020016003820160009054906101000a900460ff1660ff1660ff1681526020016003820160019054906101000a900460ff1660ff1660ff168152505081526020019060010190610e4d565b50505050905090565b60008073ffffffffffffffffffffffffffffffffffffffff168273ffffffffffffffffffffffffffffffffffffffff161415610fd9576040517f08c379a0000000000000000000000000000000000000000000000000000000008152600401610fd0906134b6565b60405180910390fd5b600360008373ffffffffffffffffffffffffffffffffffffffff1673ffffffffffffffffffffffffffffffffffffffff168152602001908152602001600020549050919050565b6110286117f3565b73ffffffffffffffffffffffffffffffffffffffff16611046611138565b73ffffffffffffffffffffffffffffffffffffffff161461109c576040517f08c379a000000000000000000000000000000000000000000000000000000000815260040161109390613576565b60405180910390fd5b6110a66000611c90565b565b6000600954905090565b6110ba6117f3565b73ffffffffffffffffffffffffffffffffffffffff166110d8611138565b73ffffffffffffffffffffffffffffffffffffffff161461112e576040517f08c379a000000000000000000000000000000000000000000000000000000000815260040161112590613576565b60405180910390fd5b611136611d56565b565b6000600760019054906101000a900473ffffffffffffffffffffffffffffffffffffffff16905090565b61116a6117f3565b73ffffffffffffffffffffffffffffffffffffffff16611188611138565b73ffffffffffffffffffffffffffffffffffffffff16146111de576040517f08c379a00000000000000000000000000000000000000000000000000000000081526004016111d590613576565b60405180910390fd5b8060098190555050565b6060600180546111f7906138ec565b80601f0160208091040260200160405190810160405280929190818152602001828054611223906138ec565b80156112705780601f1061124557610100808354040283529160200191611270565b820191906000526020600020905b81548152906001019060200180831161125357829003601f168201915b5050505050905090565b611282610d60565b156112c2576040517f08c379a00000000000000000000000000000000000000000000000000000000081526004016112b990613476565b60405180910390fd5b6009543410156112d157600080fd5b6112db8282611df9565b5050565b6112f16112ea6117f3565b8383611f85565b5050565b6113066113006117f3565b836118b4565b611345576040517f08c379a000000000000000000000000000000000000000000000000000000000815260040161133c906135f6565b60405180910390fd5b611351848484846120f2565b50505050565b606061136282611787565b6113a1576040517f08c379a000000000000000000000000000000000000000000000000000000000815260040161139890613536565b60405180910390fd5b60006006600084815260200190815260200160002080546113c1906138ec565b80601f01602080910402602001604051908101604052809291908181526020018280546113ed906138ec565b801561143a5780601f1061140f5761010080835404028352916020019161143a565b820191906000526020600020905b81548152906001019060200180831161141d57829003601f168201915b50505050509050600061144b61214e565b90506000815114156114615781925050506114a4565b60008251111561149657808260405160200161147e929190613226565b604051602081830303815290604052925050506114a4565b61149f84612165565b925050505b919050565b600a81815481106114b957600080fd5b90600052602060002090600402016000915090508060000180546114dc906138ec565b80601f0160208091040260200160405190810160405280929190818152602001828054611508906138ec565b80156115555780601f1061152a57610100808354040283529160200191611555565b820191906000526020600020905b81548152906001019060200180831161153857829003601f168201915b5050505050908060010154908060020154908060030160009054906101000a900460ff16908060030160019054906101000a900460ff16905085565b6000600560008473ffffffffffffffffffffffffffffffffffffffff1673ffffffffffffffffffffffffffffffffffffffff16815260200190815260200160002060008373ffffffffffffffffffffffffffffffffffffffff1673ffffffffffffffffffffffffffffffffffffffff16815260200190815260200160002060009054906101000a900460ff16905092915050565b61162d6117f3565b73ffffffffffffffffffffffffffffffffffffffff1661164b611138565b73ffffffffffffffffffffffffffffffffffffffff16146116a1576040517f08c379a000000000000000000000000000000000000000000000000000000000815260040161169890613576565b60405180910390fd5b600073ffffffffffffffffffffffffffffffffffffffff168173ffffffffffffffffffffffffffffffffffffffff161415611711576040517f08c379a0000000000000000000000000000000000000000000000000000000008152600401611708906133d6565b60405180910390fd5b61171a81611c90565b50565b60007f01ffc9a7000000000000000000000000000000000000000000000000000000007bffffffffffffffffffffffffffffffffffffffffffffffffffffffff1916827bffffffffffffffffffffffffffffffffffffffffffffffffffffffff1916149050919050565b60008073ffffffffffffffffffffffffffffffffffffffff166002600084815260200190815260200160002060009054906101000a900473ffffffffffffffffffffffffffffffffffffffff1673ffffffffffffffffffffffffffffffffffffffff1614159050919050565b600033905090565b816004600083815260200190815260200160002060006101000a81548173ffffffffffffffffffffffffffffffffffffffff021916908373ffffffffffffffffffffffffffffffffffffffff160217905550808273ffffffffffffffffffffffffffffffffffffffff1661186e83610d77565b73ffffffffffffffffffffffffffffffffffffffff167f8c5be1e5ebec7d5bd14f71427d1e84f3dd0314c0f7b2291e5b200ac8c7c3b92560405160405180910390a45050565b60006118bf82611787565b6118fe576040517f08c379a00000000000000000000000000000000000000000000000000000000081526004016118f590613456565b60405180910390fd5b600061190983610d77565b90508073ffffffffffffffffffffffffffffffffffffffff168473ffffffffffffffffffffffffffffffffffffffff16148061197857508373ffffffffffffffffffffffffffffffffffffffff16611960846109eb565b73ffffffffffffffffffffffffffffffffffffffff16145b8061198957506119888185611591565b5b91505092915050565b8273ffffffffffffffffffffffffffffffffffffffff166119b282610d77565b73ffffffffffffffffffffffffffffffffffffffff1614611a08576040517f08c379a00000000000000000000000000000000000000000000000000000000081526004016119ff90613596565b60405180910390fd5b600073ffffffffffffffffffffffffffffffffffffffff168273ffffffffffffffffffffffffffffffffffffffff161415611a78576040517f08c379a0000000000000000000000000000000000000000000000000000000008152600401611a6f90613416565b60405180910390fd5b611a8383838361220c565b611a8e6000826117fb565b6001600360008573ffffffffffffffffffffffffffffffffffffffff1673ffffffffffffffffffffffffffffffffffffffff1681526020019081526020016000206000828254611ade91906137f5565b925050819055506001600360008473ffffffffffffffffffffffffffffffffffffffff1673ffffffffffffffffffffffffffffffffffffffff1681526020019081526020016000206000828254611b35919061376e565b92505081905550816002600083815260200190815260200160002060006101000a81548173ffffffffffffffffffffffffffffffffffffffff021916908373ffffffffffffffffffffffffffffffffffffffff160217905550808273ffffffffffffffffffffffffffffffffffffffff168473ffffffffffffffffffffffffffffffffffffffff167fddf252ad1be2c89b69c2b068fc378daa952ba7f163c4a11628f55a4df523b3ef60405160405180910390a4505050565b611bf6610d60565b611c35576040517f08c379a0000000000000000000000000000000000000000000000000000000008152600401611c2c90613396565b60405180910390fd5b6000600760006101000a81548160ff0219169083151502179055507f5db9ee0a495bf2e6ff9c91a7834c1ba4fdd244a5e8aa4e537bd38aeae4b073aa611c796117f3565b604051611c869190613276565b60405180910390a1565b6000600760019054906101000a900473ffffffffffffffffffffffffffffffffffffffff16905081600760016101000a81548173ffffffffffffffffffffffffffffffffffffffff021916908373ffffffffffffffffffffffffffffffffffffffff1602179055508173ffffffffffffffffffffffffffffffffffffffff168173ffffffffffffffffffffffffffffffffffffffff167f8be0079c531659141344cd1fd0a4f28419497f9722a3daafe3b4186f6b6457e060405160405180910390a35050565b611d5e610d60565b15611d9e576040517f08c379a0000000000000000000000000000000000000000000000000000000008152600401611d9590613476565b60405180910390fd5b6001600760006101000a81548160ff0219169083151502179055507f62e78cea01bee320cd4e420270b5ea74000d11b0c9f74754ebdbfc544b05a258611de26117f3565b604051611def9190613276565b60405180910390a1565b6000611e056064612211565b90506000611e19662386f26fc10000612211565b905060006040518060a001604052808681526020016008548152602001838152602001600160ff1681526020018460ff168152509050611e5b60085485612256565b600a8190806001815401808255809150506001900390600052602060002090600402016000909190919091506000820151816000019080519060200190611ea392919061289d565b50602082015181600101556040820151816002015560608201518160030160006101000a81548160ff021916908360ff16021790555060808201518160030160016101000a81548160ff021916908360ff1602179055505050611f08336008546122ca565b611f1460085485612256565b3373ffffffffffffffffffffffffffffffffffffffff167fee95c65b001b4c3e33850943b2b6501f022e7414fd2722be8ab4b6960a8027fa60085484604051611f5e929190613631565b60405180910390a260086000815480929190611f799061394f565b91905055505050505050565b8173ffffffffffffffffffffffffffffffffffffffff168373ffffffffffffffffffffffffffffffffffffffff161415611ff4576040517f08c379a0000000000000000000000000000000000000000000000000000000008152600401611feb90613436565b60405180910390fd5b80600560008573ffffffffffffffffffffffffffffffffffffffff1673ffffffffffffffffffffffffffffffffffffffff16815260200190815260200160002060008473ffffffffffffffffffffffffffffffffffffffff1673ffffffffffffffffffffffffffffffffffffffff16815260200190815260200160002060006101000a81548160ff0219169083151502179055508173ffffffffffffffffffffffffffffffffffffffff168373ffffffffffffffffffffffffffffffffffffffff167f17307eab39ab6107e8899845ad3d59bd9653f200f220920489ca2b5937696c31836040516120e591906132ff565b60405180910390a3505050565b6120fd848484611992565b612109848484846122e8565b612148576040517f08c379a000000000000000000000000000000000000000000000000000000000815260040161213f906133b6565b60405180910390fd5b50505050565b606060405180602001604052806000815250905090565b606061217082611787565b6121af576040517f08c379a00000000000000000000000000000000000000000000000000000000081526004016121a6906135b6565b60405180910390fd5b60006121b961214e565b905060008151116121d95760405180602001604052806000815250612204565b806121e38461247f565b6040516020016121f4929190613226565b6040516020818303038152906040525b915050919050565b505050565b600080423360405160200161222792919061324a565b6040516020818303038152906040528051906020012060001c9050828161224e91906139c6565b915050919050565b61225f82611787565b61229e576040517f08c379a0000000000000000000000000000000000000000000000000000000008152600401612295906134f6565b60405180910390fd5b806006600084815260200190815260200160002090805190602001906122c592919061289d565b505050565b6122e482826040518060200160405280600081525061262c565b5050565b60006123098473ffffffffffffffffffffffffffffffffffffffff16612687565b15612472578373ffffffffffffffffffffffffffffffffffffffff1663150b7a026123326117f3565b8786866040518563ffffffff1660e01b81526004016123549493929190613291565b602060405180830381600087803b15801561236e57600080fd5b505af192505050801561239f57506040513d601f19601f8201168201806040525081019061239c9190612c49565b60015b612422573d80600081146123cf576040519150601f19603f3d011682016040523d82523d6000602084013e6123d4565b606091505b5060008151141561241a576040517f08c379a0000000000000000000000000000000000000000000000000000000008152600401612411906133b6565b60405180910390fd5b805181602001fd5b63150b7a0260e01b7bffffffffffffffffffffffffffffffffffffffffffffffffffffffff1916817bffffffffffffffffffffffffffffffffffffffffffffffffffffffff191614915050612477565b600190505b949350505050565b606060008214156124c7576040518060400160405280600181526020017f30000000000000000000000000000000000000000000000000000000000000008152509050612627565b600082905060005b600082146124f95780806124e29061394f565b915050600a826124f291906137c4565b91506124cf565b60008167ffffffffffffffff81111561253b577f4e487b7100000000000000000000000000000000000000000000000000000000600052604160045260246000fd5b6040519080825280601f01601f19166020018201604052801561256d5781602001600182028036833780820191505090505b5090505b600085146126205760018261258691906137f5565b9150600a8561259591906139c6565b60306125a1919061376e565b60f81b8183815181106125dd577f4e487b7100000000000000000000000000000000000000000000000000000000600052603260045260246000fd5b60200101907effffffffffffffffffffffffffffffffffffffffffffffffffffffffffffff1916908160001a905350600a8561261991906137c4565b9450612571565b8093505050505b919050565b612636838361269a565b61264360008484846122e8565b612682576040517f08c379a0000000000000000000000000000000000000000000000000000000008152600401612679906133b6565b60405180910390fd5b505050565b600080823b905060008111915050919050565b600073ffffffffffffffffffffffffffffffffffffffff168273ffffffffffffffffffffffffffffffffffffffff16141561270a576040517f08c379a000000000000000000000000000000000000000000000000000000000815260040161270190613516565b60405180910390fd5b61271381611787565b15612753576040517f08c379a000000000000000000000000000000000000000000000000000000000815260040161274a906133f6565b60405180910390fd5b61275f6000838361220c565b6001600360008473ffffffffffffffffffffffffffffffffffffffff1673ffffffffffffffffffffffffffffffffffffffff16815260200190815260200160002060008282546127af919061376e565b92505081905550816002600083815260200190815260200160002060006101000a81548173ffffffffffffffffffffffffffffffffffffffff021916908373ffffffffffffffffffffffffffffffffffffffff160217905550808273ffffffffffffffffffffffffffffffffffffffff16600073ffffffffffffffffffffffffffffffffffffffff167fddf252ad1be2c89b69c2b068fc378daa952ba7f163c4a11628f55a4df523b3ef60405160405180910390a45050565b6040518060a00160405280606081526020016000815260200160008152602001600060ff168152602001600060ff1681525090565b8280546128a9906138ec565b90600052602060002090601f0160209004810192826128cb5760008555612912565b82601f106128e457805160ff1916838001178555612912565b82800160010185558215612912579182015b828111156129115782518255916020019190600101906128f6565b5b50905061291f9190612923565b5090565b5b8082111561293c576000816000905550600101612924565b5090565b600061295361294e8461367f565b61365a565b90508281526020810184848401111561296b57600080fd5b6129768482856138aa565b509392505050565b600061299161298c846136b0565b61365a565b9050828152602081018484840111156129a957600080fd5b6129b48482856138aa565b509392505050565b6000813590506129cb81614019565b92915050565b6000813590506129e081614030565b92915050565b6000813590506129f581614047565b92915050565b600081519050612a0a81614047565b92915050565b600082601f830112612a2157600080fd5b8135612a31848260208601612940565b91505092915050565b600082601f830112612a4b57600080fd5b8135612a5b84826020860161297e565b91505092915050565b600081359050612a738161405e565b92915050565b600060208284031215612a8b57600080fd5b6000612a99848285016129bc565b91505092915050565b60008060408385031215612ab557600080fd5b6000612ac3858286016129bc565b9250506020612ad4858286016129bc565b9150509250929050565b600080600060608486031215612af357600080fd5b6000612b01868287016129bc565b9350506020612b12868287016129bc565b9250506040612b2386828701612a64565b9150509250925092565b60008060008060808587031215612b4357600080fd5b6000612b51878288016129bc565b9450506020612b62878288016129bc565b9350506040612b7387828801612a64565b925050606085013567ffffffffffffffff811115612b9057600080fd5b612b9c87828801612a10565b91505092959194509250565b60008060408385031215612bbb57600080fd5b6000612bc9858286016129bc565b9250506020612bda858286016129d1565b9150509250929050565b60008060408385031215612bf757600080fd5b6000612c05858286016129bc565b9250506020612c1685828601612a64565b9150509250929050565b600060208284031215612c3257600080fd5b6000612c40848285016129e6565b91505092915050565b600060208284031215612c5b57600080fd5b6000612c69848285016129fb565b91505092915050565b60008060408385031215612c8557600080fd5b600083013567ffffffffffffffff811115612c9f57600080fd5b612cab85828601612a3a565b925050602083013567ffffffffffffffff811115612cc857600080fd5b612cd485828601612a3a565b9150509250929050565b600060208284031215612cf057600080fd5b6000612cfe84828501612a64565b91505092915050565b6000612d13838361315d565b905092915050565b612d2481613829565b82525050565b612d3b612d3682613829565b613998565b82525050565b6000612d4c826136f1565b612d56818561371f565b935083602082028501612d68856136e1565b8060005b85811015612da45784840389528151612d858582612d07565b9450612d9083613712565b925060208a01995050600181019050612d6c565b50829750879550505050505092915050565b612dbf8161383b565b82525050565b6000612dd0826136fc565b612dda8185613730565b9350612dea8185602086016138b9565b612df381613ab3565b840191505092915050565b6000612e0982613707565b612e138185613741565b9350612e238185602086016138b9565b612e2c81613ab3565b840191505092915050565b6000612e4282613707565b612e4c8185613752565b9350612e5c8185602086016138b9565b612e6581613ab3565b840191505092915050565b6000612e7b82613707565b612e858185613763565b9350612e958185602086016138b9565b80840191505092915050565b6000612eae601483613752565b9150612eb982613ad1565b602082019050919050565b6000612ed1603283613752565b9150612edc82613afa565b604082019050919050565b6000612ef4602683613752565b9150612eff82613b49565b604082019050919050565b6000612f17601c83613752565b9150612f2282613b98565b602082019050919050565b6000612f3a602483613752565b9150612f4582613bc1565b604082019050919050565b6000612f5d601983613752565b9150612f6882613c10565b602082019050919050565b6000612f80602c83613752565b9150612f8b82613c39565b604082019050919050565b6000612fa3601083613752565b9150612fae82613c88565b602082019050919050565b6000612fc6603883613752565b9150612fd182613cb1565b604082019050919050565b6000612fe9602a83613752565b9150612ff482613d00565b604082019050919050565b600061300c602983613752565b915061301782613d4f565b604082019050919050565b600061302f602e83613752565b915061303a82613d9e565b604082019050919050565b6000613052602083613752565b915061305d82613ded565b602082019050919050565b6000613075603183613752565b915061308082613e16565b604082019050919050565b6000613098602c83613752565b91506130a382613e65565b604082019050919050565b60006130bb602083613752565b91506130c682613eb4565b602082019050919050565b60006130de602983613752565b91506130e982613edd565b604082019050919050565b6000613101602f83613752565b915061310c82613f2c565b604082019050919050565b6000613124602183613752565b915061312f82613f7b565b604082019050919050565b6000613147603183613752565b915061315282613fca565b604082019050919050565b600060a083016000830151848203600086015261317a8282612dfe565b915050602083015161318f60208601826131d3565b5060408301516131a260408601826131d3565b5060608301516131b56060860182613208565b5060808301516131c86080860182613208565b508091505092915050565b6131dc81613893565b82525050565b6131eb81613893565b82525050565b6132026131fd82613893565b6139bc565b82525050565b6132118161389d565b82525050565b6132208161389d565b82525050565b60006132328285612e70565b915061323e8284612e70565b91508190509392505050565b600061325682856131f1565b6020820191506132668284612d2a565b6014820191508190509392505050565b600060208201905061328b6000830184612d1b565b92915050565b60006080820190506132a66000830187612d1b565b6132b36020830186612d1b565b6132c060408301856131e2565b81810360608301526132d28184612dc5565b905095945050505050565b600060208201905081810360008301526132f78184612d41565b905092915050565b60006020820190506133146000830184612db6565b92915050565b600060208201905081810360008301526133348184612e37565b905092915050565b600060a08201905081810360008301526133568188612e37565b905061336560208301876131e2565b61337260408301866131e2565b61337f6060830185613217565b61338c6080830184613217565b9695505050505050565b600060208201905081810360008301526133af81612ea1565b9050919050565b600060208201905081810360008301526133cf81612ec4565b9050919050565b600060208201905081810360008301526133ef81612ee7565b9050919050565b6000602082019050818103600083015261340f81612f0a565b9050919050565b6000602082019050818103600083015261342f81612f2d565b9050919050565b6000602082019050818103600083015261344f81612f50565b9050919050565b6000602082019050818103600083015261346f81612f73565b9050919050565b6000602082019050818103600083015261348f81612f96565b9050919050565b600060208201905081810360008301526134af81612fb9565b9050919050565b600060208201905081810360008301526134cf81612fdc565b9050919050565b600060208201905081810360008301526134ef81612fff565b9050919050565b6000602082019050818103600083015261350f81613022565b9050919050565b6000602082019050818103600083015261352f81613045565b9050919050565b6000602082019050818103600083015261354f81613068565b9050919050565b6000602082019050818103600083015261356f8161308b565b9050919050565b6000602082019050818103600083015261358f816130ae565b9050919050565b600060208201905081810360008301526135af816130d1565b9050919050565b600060208201905081810360008301526135cf816130f4565b9050919050565b600060208201905081810360008301526135ef81613117565b9050919050565b6000602082019050818103600083015261360f8161313a565b9050919050565b600060208201905061362b60008301846131e2565b92915050565b600060408201905061364660008301856131e2565b61365360208301846131e2565b9392505050565b6000613664613675565b9050613670828261391e565b919050565b6000604051905090565b600067ffffffffffffffff82111561369a57613699613a84565b5b6136a382613ab3565b9050602081019050919050565b600067ffffffffffffffff8211156136cb576136ca613a84565b5b6136d482613ab3565b9050602081019050919050565b6000819050602082019050919050565b600081519050919050565b600081519050919050565b600081519050919050565b6000602082019050919050565b600082825260208201905092915050565b600082825260208201905092915050565b600082825260208201905092915050565b600082825260208201905092915050565b600081905092915050565b600061377982613893565b915061378483613893565b9250827fffffffffffffffffffffffffffffffffffffffffffffffffffffffffffffffff038211156137b9576137b86139f7565b5b828201905092915050565b60006137cf82613893565b91506137da83613893565b9250826137ea576137e9613a26565b5b828204905092915050565b600061380082613893565b915061380b83613893565b92508282101561381e5761381d6139f7565b5b828203905092915050565b600061383482613873565b9050919050565b60008115159050919050565b60007fffffffff0000000000000000000000000000000000000000000000000000000082169050919050565b600073ffffffffffffffffffffffffffffffffffffffff82169050919050565b6000819050919050565b600060ff82169050919050565b82818337600083830152505050565b60005b838110156138d75780820151818401526020810190506138bc565b838111156138e6576000848401525b50505050565b6000600282049050600182168061390457607f821691505b6020821081141561391857613917613a55565b5b50919050565b61392782613ab3565b810181811067ffffffffffffffff8211171561394657613945613a84565b5b80604052505050565b600061395a82613893565b91507fffffffffffffffffffffffffffffffffffffffffffffffffffffffffffffffff82141561398d5761398c6139f7565b5b600182019050919050565b60006139a3826139aa565b9050919050565b60006139b582613ac4565b9050919050565b6000819050919050565b60006139d182613893565b91506139dc83613893565b9250826139ec576139eb613a26565b5b828206905092915050565b7f4e487b7100000000000000000000000000000000000000000000000000000000600052601160045260246000fd5b7f4e487b7100000000000000000000000000000000000000000000000000000000600052601260045260246000fd5b7f4e487b7100000000000000000000000000000000000000000000000000000000600052602260045260246000fd5b7f4e487b7100000000000000000000000000000000000000000000000000000000600052604160045260246000fd5b6000601f19601f8301169050919050565b60008160601b9050919050565b7f5061757361626c653a206e6f7420706175736564000000000000000000000000600082015250565b7f4552433732313a207472616e7366657220746f206e6f6e20455243373231526560008201527f63656976657220696d706c656d656e7465720000000000000000000000000000602082015250565b7f4f776e61626c653a206e6577206f776e657220697320746865207a65726f206160008201527f6464726573730000000000000000000000000000000000000000000000000000602082015250565b7f4552433732313a20746f6b656e20616c7265616479206d696e74656400000000600082015250565b7f4552433732313a207472616e7366657220746f20746865207a65726f2061646460008201527f7265737300000000000000000000000000000000000000000000000000000000602082015250565b7f4552433732313a20617070726f766520746f2063616c6c657200000000000000600082015250565b7f4552433732313a206f70657261746f7220717565727920666f72206e6f6e657860008201527f697374656e7420746f6b656e0000000000000000000000000000000000000000602082015250565b7f5061757361626c653a2070617573656400000000000000000000000000000000600082015250565b7f4552433732313a20617070726f76652063616c6c6572206973206e6f74206f7760008201527f6e6572206e6f7220617070726f76656420666f7220616c6c0000000000000000602082015250565b7f4552433732313a2062616c616e636520717565727920666f7220746865207a6560008201527f726f206164647265737300000000000000000000000000000000000000000000602082015250565b7f4552433732313a206f776e657220717565727920666f72206e6f6e657869737460008201527f656e7420746f6b656e0000000000000000000000000000000000000000000000602082015250565b7f45524337323155524953746f726167653a2055524920736574206f66206e6f6e60008201527f6578697374656e7420746f6b656e000000000000000000000000000000000000602082015250565b7f4552433732313a206d696e7420746f20746865207a65726f2061646472657373600082015250565b7f45524337323155524953746f726167653a2055524920717565727920666f722060008201527f6e6f6e6578697374656e7420746f6b656e000000000000000000000000000000602082015250565b7f4552433732313a20617070726f76656420717565727920666f72206e6f6e657860008201527f697374656e7420746f6b656e0000000000000000000000000000000000000000602082015250565b7f4f776e61626c653a2063616c6c6572206973206e6f7420746865206f776e6572600082015250565b7f4552433732313a207472616e73666572206f6620746f6b656e2074686174206960008201527f73206e6f74206f776e0000000000000000000000000000000000000000000000602082015250565b7f4552433732314d657461646174613a2055524920717565727920666f72206e6f60008201527f6e6578697374656e7420746f6b656e0000000000000000000000000000000000602082015250565b7f4552433732313a20617070726f76616c20746f2063757272656e74206f776e6560008201527f7200000000000000000000000000000000000000000000000000000000000000602082015250565b7f4552433732313a207472616e736665722063616c6c6572206973206e6f74206f60008201527f776e6572206e6f7220617070726f766564000000000000000000000000000000602082015250565b61402281613829565b811461402d57600080fd5b50565b6140398161383b565b811461404457600080fd5b50565b61405081613847565b811461405b57600080fd5b50565b61406781613893565b811461407257600080fd5b5056fea264697066735822122097f39e2575c9a2faeec9e2cf8cb850acf6dba298092ac4350f2a52f3895bbb3364736f6c63430008040033",
  "linkReferences": {},
  "deployedLinkReferences": {}
}