{
  "_format": "hh-sol-artifact-1",
  "contractName": "MageToken",
  "sourceName": "contracts/MageToken.sol",
  "abi": [
    {
      "inputs": [
        {
          "internalType": "string",
          "name": "_name",
          "type": "string"
        },
        {
          "internalType": "string",
          "name": "_symbol",
          "type": "string"
        }
      ],
      "stateMutability": "nonpayable",
      "type": "constructor"
    },
    {
      "anonymous": false,
      "inputs": [
        {
          "indexed": true,
          "internalType": "address",
          "name": "owner",
          "type": "address"
        },
        {
          "indexed": true,
          "internalType": "address",
          "name": "approved",
          "type": "address"
        },
        {
          "indexed": true,
          "internalType": "uint256",
          "name": "tokenId",
          "type": "uint256"
        }
      ],
      "name": "Approval",
      "type": "event"
    },
    {
      "anonymous": false,
      "inputs": [
        {
          "indexed": true,
          "internalType": "address",
          "name": "owner",
          "type": "address"
        },
        {
          "indexed": true,
          "internalType": "address",
          "name": "operator",
          "type": "address"
        },
        {
          "indexed": false,
          "internalType": "bool",
          "name": "approved",
          "type": "bool"
        }
      ],
      "name": "ApprovalForAll",
      "type": "event"
    },
    {
      "anonymous": false,
      "inputs": [
        {
          "indexed": true,
          "internalType": "address",
          "name": "owner",
          "type": "address"
        },
        {
          "indexed": false,
          "internalType": "uint256",
          "name": "id",
          "type": "uint256"
        },
        {
          "indexed": false,
          "internalType": "uint256",
          "name": "dna",
          "type": "uint256"
        }
      ],
      "name": "NewMage",
      "type": "event"
    },
    {
      "anonymous": false,
      "inputs": [
        {
          "indexed": true,
          "internalType": "address",
          "name": "previousOwner",
          "type": "address"
        },
        {
          "indexed": true,
          "internalType": "address",
          "name": "newOwner",
          "type": "address"
        }
      ],
      "name": "OwnershipTransferred",
      "type": "event"
    },
    {
      "anonymous": false,
      "inputs": [
        {
          "indexed": true,
          "internalType": "address",
          "name": "from",
          "type": "address"
        },
        {
          "indexed": true,
          "internalType": "address",
          "name": "to",
          "type": "address"
        },
        {
          "indexed": true,
          "internalType": "uint256",
          "name": "tokenId",
          "type": "uint256"
        }
      ],
      "name": "Transfer",
      "type": "event"
    },
    {
      "inputs": [
        {
          "internalType": "address",
          "name": "to",
          "type": "address"
        },
        {
          "internalType": "uint256",
          "name": "tokenId",
          "type": "uint256"
        }
      ],
      "name": "approve",
      "outputs": [],
      "stateMutability": "nonpayable",
      "type": "function"
    },
    {
      "inputs": [
        {
          "internalType": "address",
          "name": "owner",
          "type": "address"
        }
      ],
      "name": "balanceOf",
      "outputs": [
        {
          "internalType": "uint256",
          "name": "",
          "type": "uint256"
        }
      ],
      "stateMutability": "view",
      "type": "function"
    },
    {
      "inputs": [
        {
          "internalType": "string",
          "name": "_name",
          "type": "string"
        }
      ],
      "name": "createRandomMage",
      "outputs": [],
      "stateMutability": "payable",
      "type": "function"
    },
    {
      "inputs": [
        {
          "internalType": "uint256",
          "name": "tokenId",
          "type": "uint256"
        }
      ],
      "name": "getApproved",
      "outputs": [
        {
          "internalType": "address",
          "name": "",
          "type": "address"
        }
      ],
      "stateMutability": "view",
      "type": "function"
    },
    {
      "inputs": [],
      "name": "getMages",
      "outputs": [
        {
          "components": [
            {
              "internalType": "string",
              "name": "name",
              "type": "string"
            },
            {
              "internalType": "uint256",
              "name": "id",
              "type": "uint256"
            },
            {
              "internalType": "uint256",
              "name": "dna",
              "type": "uint256"
            },
            {
              "internalType": "uint8",
              "name": "level",
              "type": "uint8"
            },
            {
              "internalType": "uint8",
              "name": "rarity",
              "type": "uint8"
            }
          ],
          "internalType": "struct MageToken.Mage[]",
          "name": "",
          "type": "tuple[]"
        }
      ],
      "stateMutability": "view",
      "type": "function"
    },
    {
      "inputs": [
        {
          "internalType": "address",
          "name": "_owner",
          "type": "address"
        }
      ],
      "name": "getOwnerMages",
      "outputs": [
        {
          "components": [
            {
              "internalType": "string",
              "name": "name",
              "type": "string"
            },
            {
              "internalType": "uint256",
              "name": "id",
              "type": "uint256"
            },
            {
              "internalType": "uint256",
              "name": "dna",
              "type": "uint256"
            },
            {
              "internalType": "uint8",
              "name": "level",
              "type": "uint8"
            },
            {
              "internalType": "uint8",
              "name": "rarity",
              "type": "uint8"
            }
          ],
          "internalType": "struct MageToken.Mage[]",
          "name": "",
          "type": "tuple[]"
        }
      ],
      "stateMutability": "view",
      "type": "function"
    },
    {
      "inputs": [
        {
          "internalType": "address",
          "name": "owner",
          "type": "address"
        },
        {
          "internalType": "address",
          "name": "operator",
          "type": "address"
        }
      ],
      "name": "isApprovedForAll",
      "outputs": [
        {
          "internalType": "bool",
          "name": "",
          "type": "bool"
        }
      ],
      "stateMutability": "view",
      "type": "function"
    },
    {
      "inputs": [
        {
          "internalType": "uint256",
          "name": "_mageId",
          "type": "uint256"
        }
      ],
      "name": "levelUp",
      "outputs": [],
      "stateMutability": "nonpayable",
      "type": "function"
    },
    {
      "inputs": [
        {
          "internalType": "uint256",
          "name": "",
          "type": "uint256"
        }
      ],
      "name": "mages",
      "outputs": [
        {
          "internalType": "string",
          "name": "name",
          "type": "string"
        },
        {
          "internalType": "uint256",
          "name": "id",
          "type": "uint256"
        },
        {
          "internalType": "uint256",
          "name": "dna",
          "type": "uint256"
        },
        {
          "internalType": "uint8",
          "name": "level",
          "type": "uint8"
        },
        {
          "internalType": "uint8",
          "name": "rarity",
          "type": "uint8"
        }
      ],
      "stateMutability": "view",
      "type": "function"
    },
    {
      "inputs": [],
      "name": "name",
      "outputs": [
        {
          "internalType": "string",
          "name": "",
          "type": "string"
        }
      ],
      "stateMutability": "view",
      "type": "function"
    },
    {
      "inputs": [],
      "name": "owner",
      "outputs": [
        {
          "internalType": "address",
          "name": "",
          "type": "address"
        }
      ],
      "stateMutability": "view",
      "type": "function"
    },
    {
      "inputs": [
        {
          "internalType": "uint256",
          "name": "tokenId",
          "type": "uint256"
        }
      ],
      "name": "ownerOf",
      "outputs": [
        {
          "internalType": "address",
          "name": "",
          "type": "address"
        }
      ],
      "stateMutability": "view",
      "type": "function"
    },
    {
      "inputs": [],
      "name": "renounceOwnership",
      "outputs": [],
      "stateMutability": "nonpayable",
      "type": "function"
    },
    {
      "inputs": [
        {
          "internalType": "address",
          "name": "from",
          "type": "address"
        },
        {
          "internalType": "address",
          "name": "to",
          "type": "address"
        },
        {
          "internalType": "uint256",
          "name": "tokenId",
          "type": "uint256"
        }
      ],
      "name": "safeTransferFrom",
      "outputs": [],
      "stateMutability": "nonpayable",
      "type": "function"
    },
    {
      "inputs": [
        {
          "internalType": "address",
          "name": "from",
          "type": "address"
        },
        {
          "internalType": "address",
          "name": "to",
          "type": "address"
        },
        {
          "internalType": "uint256",
          "name": "tokenId",
          "type": "uint256"
        },
        {
          "internalType": "bytes",
          "name": "_data",
          "type": "bytes"
        }
      ],
      "name": "safeTransferFrom",
      "outputs": [],
      "stateMutability": "nonpayable",
      "type": "function"
    },
    {
      "inputs": [
        {
          "internalType": "address",
          "name": "operator",
          "type": "address"
        },
        {
          "internalType": "bool",
          "name": "approved",
          "type": "bool"
        }
      ],
      "name": "setApprovalForAll",
      "outputs": [],
      "stateMutability": "nonpayable",
      "type": "function"
    },
    {
      "inputs": [
        {
          "internalType": "bytes4",
          "name": "interfaceId",
          "type": "bytes4"
        }
      ],
      "name": "supportsInterface",
      "outputs": [
        {
          "internalType": "bool",
          "name": "",
          "type": "bool"
        }
      ],
      "stateMutability": "view",
      "type": "function"
    },
    {
      "inputs": [],
      "name": "symbol",
      "outputs": [
        {
          "internalType": "string",
          "name": "",
          "type": "string"
        }
      ],
      "stateMutability": "view",
      "type": "function"
    },
    {
      "inputs": [
        {
          "internalType": "uint256",
          "name": "tokenId",
          "type": "uint256"
        }
      ],
      "name": "tokenURI",
      "outputs": [
        {
          "internalType": "string",
          "name": "",
          "type": "string"
        }
      ],
      "stateMutability": "view",
      "type": "function"
    },
    {
      "inputs": [
        {
          "internalType": "address",
          "name": "from",
          "type": "address"
        },
        {
          "internalType": "address",
          "name": "to",
          "type": "address"
        },
        {
          "internalType": "uint256",
          "name": "tokenId",
          "type": "uint256"
        }
      ],
      "name": "transferFrom",
      "outputs": [],
      "stateMutability": "nonpayable",
      "type": "function"
    },
    {
      "inputs": [
        {
          "internalType": "address",
          "name": "newOwner",
          "type": "address"
        }
      ],
      "name": "transferOwnership",
      "outputs": [],
      "stateMutability": "nonpayable",
      "type": "function"
    },
    {
      "inputs": [
        {
          "internalType": "uint256",
          "name": "_fee",
          "type": "uint256"
        }
      ],
      "name": "updateFee",
      "outputs": [],
      "stateMutability": "nonpayable",
      "type": "function"
    },
    {
      "inputs": [],
      "name": "withdraw",
      "outputs": [],
      "stateMutability": "payable",
      "type": "function"
    }
  ],
  "bytecode": "0x6080604052662386f26fc100006008553480156200001c57600080fd5b5060405162002368380380620023688339810160408190526200003f9162000242565b81518290829062000058906000906020850190620000e9565b5080516200006e906001906020840190620000e9565b5050506200008b620000856200009360201b60201c565b62000097565b5050620002fc565b3390565b600680546001600160a01b038381166001600160a01b0319831681179093556040519116919082907f8be0079c531659141344cd1fd0a4f28419497f9722a3daafe3b4186f6b6457e090600090a35050565b828054620000f790620002a9565b90600052602060002090601f0160209004810192826200011b576000855562000166565b82601f106200013657805160ff191683800117855562000166565b8280016001018555821562000166579182015b828111156200016657825182559160200191906001019062000149565b506200017492915062000178565b5090565b5b8082111562000174576000815560010162000179565b600082601f830112620001a0578081fd5b81516001600160401b0380821115620001bd57620001bd620002e6565b604051601f8301601f19908116603f01168101908282118183101715620001e857620001e8620002e6565b8160405283815260209250868385880101111562000204578485fd5b8491505b8382101562000227578582018301518183018401529082019062000208565b838211156200023857848385830101525b9695505050505050565b6000806040838503121562000255578182fd5b82516001600160401b03808211156200026c578384fd5b6200027a868387016200018f565b9350602085015191508082111562000290578283fd5b506200029f858286016200018f565b9150509250929050565b600181811c90821680620002be57607f821691505b60208210811415620002e057634e487b7160e01b600052602260045260246000fd5b50919050565b634e487b7160e01b600052604160045260246000fd5b61205c806200030c6000396000f3fe6080604052600436106101405760003560e01c806370a08231116100b6578063b88d4fde1161006f578063b88d4fde14610376578063c87b56dd14610396578063d0269e94146103b6578063d9d55054146103e7578063e985e9c5146103fa578063f2fde38b1461044357600080fd5b806370a08231146102c0578063715018a6146102ee5780638da5cb5b146103035780639012c4a81461032157806395d89b4114610341578063a22cb4651461035657600080fd5b80630ce90ec2116101085780630ce90ec21461022357806323b872dd146102435780633ccfd60b1461026357806342842e0e1461026b5780636352211e1461028b578063674c4885146102ab57600080fd5b806301ffc9a71461014557806305389eaf1461017a57806306fdde03146101a7578063081812fc146101c9578063095ea7b314610201575b600080fd5b34801561015157600080fd5b50610165610160366004611be5565b610463565b60405190151581526020015b60405180910390f35b34801561018657600080fd5b5061019a610195366004611a82565b6104b5565b6040516101719190611d13565b3480156101b357600080fd5b506101bc6106d7565b6040516101719190611db0565b3480156101d557600080fd5b506101e96101e4366004611c63565b610769565b6040516001600160a01b039091168152602001610171565b34801561020d57600080fd5b5061022161021c366004611bbc565b610803565b005b34801561022f57600080fd5b5061022161023e366004611c63565b610919565b34801561024f57600080fd5b5061022161025e366004611ace565b61099e565b6102216109cf565b34801561027757600080fd5b50610221610286366004611ace565b610a49565b34801561029757600080fd5b506101e96102a6366004611c63565b610a64565b3480156102b757600080fd5b5061019a610adb565b3480156102cc57600080fd5b506102e06102db366004611a82565b610c01565b604051908152602001610171565b3480156102fa57600080fd5b50610221610c88565b34801561030f57600080fd5b506006546001600160a01b03166101e9565b34801561032d57600080fd5b5061022161033c366004611c63565b610cbe565b34801561034d57600080fd5b506101bc610ced565b34801561036257600080fd5b50610221610371366004611b82565b610cfc565b34801561038257600080fd5b50610221610391366004611b09565b610d07565b3480156103a257600080fd5b506101bc6103b1366004611c63565b610d3f565b3480156103c257600080fd5b506103d66103d1366004611c63565b610e27565b604051610171959493929190611dc3565b6102216103f5366004611c1d565b610efd565b34801561040657600080fd5b50610165610415366004611a9c565b6001600160a01b03918216600090815260056020908152604080832093909416825291909152205460ff1690565b34801561044f57600080fd5b5061022161045e366004611a82565b610f18565b60006001600160e01b031982166380ac58cd60e01b148061049457506001600160e01b03198216635b5e139f60e01b145b806104af57506301ffc9a760e01b6001600160e01b03198316145b92915050565b606060006104c283610c01565b67ffffffffffffffff8111156104e857634e487b7160e01b600052604160045260246000fd5b60405190808252806020026020018201604052801561055157816020015b61053e6040518060a00160405280606081526020016000815260200160008152602001600060ff168152602001600060ff1681525090565b8152602001906001900390816105065790505b5090506000805b6009548110156106ce57846001600160a01b031661057582610a64565b6001600160a01b031614156106bc57600981815481106105a557634e487b7160e01b600052603260045260246000fd5b90600052602060002090600402016040518060a00160405290816000820180546105ce90611f44565b80601f01602080910402602001604051908101604052809291908181526020018280546105fa90611f44565b80156106475780601f1061061c57610100808354040283529160200191610647565b820191906000526020600020905b81548152906001019060200180831161062a57829003601f168201915b5050509183525050600182015460208201526002820154604082015260039091015460ff80821660608401526101009091041660809091015283518490849081106106a257634e487b7160e01b600052603260045260246000fd5b602002602001018190525081806106b890611f7f565b9250505b806106c681611f7f565b915050610558565b50909392505050565b6060600080546106e690611f44565b80601f016020809104026020016040519081016040528092919081815260200182805461071290611f44565b801561075f5780601f106107345761010080835404028352916020019161075f565b820191906000526020600020905b81548152906001019060200180831161074257829003601f168201915b5050505050905090565b6000818152600260205260408120546001600160a01b03166107e75760405162461bcd60e51b815260206004820152602c60248201527f4552433732313a20617070726f76656420717565727920666f72206e6f6e657860448201526b34b9ba32b73a103a37b5b2b760a11b60648201526084015b60405180910390fd5b506000908152600460205260409020546001600160a01b031690565b600061080e82610a64565b9050806001600160a01b0316836001600160a01b0316141561087c5760405162461bcd60e51b815260206004820152602160248201527f4552433732313a20617070726f76616c20746f2063757272656e74206f776e656044820152603960f91b60648201526084016107de565b336001600160a01b038216148061089857506108988133610415565b61090a5760405162461bcd60e51b815260206004820152603860248201527f4552433732313a20617070726f76652063616c6c6572206973206e6f74206f7760448201527f6e6572206e6f7220617070726f76656420666f7220616c6c000000000000000060648201526084016107de565b6109148383610fb0565b505050565b3361092382610a64565b6001600160a01b03161461093657600080fd5b60006009828154811061095957634e487b7160e01b600052603260045260246000fd5b6000918252602082206003600490920201908101805491935060ff9091169161098183611f9a565b91906101000a81548160ff021916908360ff160217905550505050565b6109a8338261101e565b6109c45760405162461bcd60e51b81526004016107de90611e84565b610914838383611115565b6006546001600160a01b031633146109f95760405162461bcd60e51b81526004016107de90611e4f565b6000610a0d6006546001600160a01b031690565b6040519091506001600160a01b038216904780156108fc02916000818181858888f19350505050158015610a45573d6000803e3d6000fd5b5050565b61091483838360405180602001604052806000815250610d07565b6000818152600260205260408120546001600160a01b0316806104af5760405162461bcd60e51b815260206004820152602960248201527f4552433732313a206f776e657220717565727920666f72206e6f6e657869737460448201526832b73a103a37b5b2b760b91b60648201526084016107de565b60606009805480602002602001604051908101604052809291908181526020016000905b82821015610bf857838290600052602060002090600402016040518060a0016040529081600082018054610b3290611f44565b80601f0160208091040260200160405190810160405280929190818152602001828054610b5e90611f44565b8015610bab5780601f10610b8057610100808354040283529160200191610bab565b820191906000526020600020905b815481529060010190602001808311610b8e57829003601f168201915b50505091835250506001828101546020808401919091526002840154604084015260039093015460ff80821660608501526101009091041660809092019190915291835292019101610aff565b50505050905090565b60006001600160a01b038216610c6c5760405162461bcd60e51b815260206004820152602a60248201527f4552433732313a2062616c616e636520717565727920666f7220746865207a65604482015269726f206164647265737360b01b60648201526084016107de565b506001600160a01b031660009081526003602052604090205490565b6006546001600160a01b03163314610cb25760405162461bcd60e51b81526004016107de90611e4f565b610cbc60006112b5565b565b6006546001600160a01b03163314610ce85760405162461bcd60e51b81526004016107de90611e4f565b600855565b6060600180546106e690611f44565b610a45338383611307565b610d11338361101e565b610d2d5760405162461bcd60e51b81526004016107de90611e84565b610d39848484846113d6565b50505050565b6000818152600260205260409020546060906001600160a01b0316610dbe5760405162461bcd60e51b815260206004820152602f60248201527f4552433732314d657461646174613a2055524920717565727920666f72206e6f60448201526e3732bc34b9ba32b73a103a37b5b2b760891b60648201526084016107de565b6000610dd560408051602081019091526000815290565b90506000815111610df55760405180602001604052806000815250610e20565b80610dff84611409565b604051602001610e10929190611ca7565b6040516020818303038152906040525b9392505050565b60098181548110610e3757600080fd5b9060005260206000209060040201600091509050806000018054610e5a90611f44565b80601f0160208091040260200160405190810160405280929190818152602001828054610e8690611f44565b8015610ed35780601f10610ea857610100808354040283529160200191610ed3565b820191906000526020600020905b815481529060010190602001808311610eb657829003601f168201915b50505050600183015460028401546003909401549293909290915060ff8082169161010090041685565b600854341015610f0c57600080fd5b610f1581611523565b50565b6006546001600160a01b03163314610f425760405162461bcd60e51b81526004016107de90611e4f565b6001600160a01b038116610fa75760405162461bcd60e51b815260206004820152602660248201527f4f776e61626c653a206e6577206f776e657220697320746865207a65726f206160448201526564647265737360d01b60648201526084016107de565b610f15816112b5565b600081815260046020526040902080546001600160a01b0319166001600160a01b0384169081179091558190610fe582610a64565b6001600160a01b03167f8c5be1e5ebec7d5bd14f71427d1e84f3dd0314c0f7b2291e5b200ac8c7c3b92560405160405180910390a45050565b6000818152600260205260408120546001600160a01b03166110975760405162461bcd60e51b815260206004820152602c60248201527f4552433732313a206f70657261746f7220717565727920666f72206e6f6e657860448201526b34b9ba32b73a103a37b5b2b760a11b60648201526084016107de565b60006110a283610a64565b9050806001600160a01b0316846001600160a01b031614806110dd5750836001600160a01b03166110d284610769565b6001600160a01b0316145b8061110d57506001600160a01b0380821660009081526005602090815260408083209388168352929052205460ff165b949350505050565b826001600160a01b031661112882610a64565b6001600160a01b0316146111905760405162461bcd60e51b815260206004820152602960248201527f4552433732313a207472616e73666572206f6620746f6b656e2074686174206960448201526839903737ba1037bbb760b91b60648201526084016107de565b6001600160a01b0382166111f25760405162461bcd60e51b8152602060048201526024808201527f4552433732313a207472616e7366657220746f20746865207a65726f206164646044820152637265737360e01b60648201526084016107de565b6111fd600082610fb0565b6001600160a01b0383166000908152600360205260408120805460019290611226908490611f01565b90915550506001600160a01b0382166000908152600360205260408120805460019290611254908490611ed5565b909155505060008181526002602052604080822080546001600160a01b0319166001600160a01b0386811691821790925591518493918716917fddf252ad1be2c89b69c2b068fc378daa952ba7f163c4a11628f55a4df523b3ef91a4505050565b600680546001600160a01b038381166001600160a01b0319831681179093556040519116919082907f8be0079c531659141344cd1fd0a4f28419497f9722a3daafe3b4186f6b6457e090600090a35050565b816001600160a01b0316836001600160a01b031614156113695760405162461bcd60e51b815260206004820152601960248201527f4552433732313a20617070726f766520746f2063616c6c65720000000000000060448201526064016107de565b6001600160a01b03838116600081815260056020908152604080832094871680845294825291829020805460ff191686151590811790915591519182527f17307eab39ab6107e8899845ad3d59bd9653f200f220920489ca2b5937696c31910160405180910390a3505050565b6113e1848484611115565b6113ed8484848461166b565b610d395760405162461bcd60e51b81526004016107de90611dfd565b60608161142d5750506040805180820190915260018152600360fc1b602082015290565b8160005b8115611457578061144181611f7f565b91506114509050600a83611eed565b9150611431565b60008167ffffffffffffffff81111561148057634e487b7160e01b600052604160045260246000fd5b6040519080825280601f01601f1916602001820160405280156114aa576020820181803683370190505b5090505b841561110d576114bf600183611f01565b91506114cc600a86611fba565b6114d7906030611ed5565b60f81b8183815181106114fa57634e487b7160e01b600052603260045260246000fd5b60200101906001600160f81b031916908160001a90535061151c600a86611eed565b94506114ae565b600061152f6064611778565b90506000611543662386f26fc10000611778565b6040805160a08101825285815260075460208083019190915291810183905260016060820181905260ff86166080830152600980549182018155600052815180519495509193849360049092027f6e1540171b6c0c960b71a7020d9f60077f6af931a8bbf590da0223dacf75c7af01926115c1928492910190611957565b50602082015160018201556040820151600282015560608201516003909101805460809093015160ff9081166101000261ffff199094169216919091179190911790556007546116129033906117cd565b600754604080519182526020820184905233917fee95c65b001b4c3e33850943b2b6501f022e7414fd2722be8ab4b6960a8027fa910160405180910390a26007805490600061166083611f7f565b919050555050505050565b60006001600160a01b0384163b1561176d57604051630a85bd0160e11b81526001600160a01b0385169063150b7a02906116af903390899088908890600401611cd6565b602060405180830381600087803b1580156116c957600080fd5b505af19250505080156116f9575060408051601f3d908101601f191682019092526116f691810190611c01565b60015b611753573d808015611727576040519150601f19603f3d011682016040523d82523d6000602084013e61172c565b606091505b50805161174b5760405162461bcd60e51b81526004016107de90611dfd565b805181602001fd5b6001600160e01b031916630a85bd0160e11b14905061110d565b506001949350505050565b60008042336040516020016117a992919091825260601b6bffffffffffffffffffffffff1916602082015260340190565b60408051601f1981840301815291905280516020909101209050610e208382611fba565b610a458282604051806020016040528060008152506117ec8383611815565b6117f9600084848461166b565b6109145760405162461bcd60e51b81526004016107de90611dfd565b6001600160a01b03821661186b5760405162461bcd60e51b815260206004820181905260248201527f4552433732313a206d696e7420746f20746865207a65726f206164647265737360448201526064016107de565b6000818152600260205260409020546001600160a01b0316156118d05760405162461bcd60e51b815260206004820152601c60248201527f4552433732313a20746f6b656e20616c7265616479206d696e7465640000000060448201526064016107de565b6001600160a01b03821660009081526003602052604081208054600192906118f9908490611ed5565b909155505060008181526002602052604080822080546001600160a01b0319166001600160a01b03861690811790915590518392907fddf252ad1be2c89b69c2b068fc378daa952ba7f163c4a11628f55a4df523b3ef908290a45050565b82805461196390611f44565b90600052602060002090601f01602090048101928261198557600085556119cb565b82601f1061199e57805160ff19168380011785556119cb565b828001600101855582156119cb579182015b828111156119cb5782518255916020019190600101906119b0565b506119d79291506119db565b5090565b5b808211156119d757600081556001016119dc565b600067ffffffffffffffff80841115611a0b57611a0b611ffa565b604051601f8501601f19908116603f01168101908282118183101715611a3357611a33611ffa565b81604052809350858152868686011115611a4c57600080fd5b858560208301376000602087830101525050509392505050565b80356001600160a01b0381168114611a7d57600080fd5b919050565b600060208284031215611a93578081fd5b610e2082611a66565b60008060408385031215611aae578081fd5b611ab783611a66565b9150611ac560208401611a66565b90509250929050565b600080600060608486031215611ae2578081fd5b611aeb84611a66565b9250611af960208501611a66565b9150604084013590509250925092565b60008060008060808587031215611b1e578081fd5b611b2785611a66565b9350611b3560208601611a66565b925060408501359150606085013567ffffffffffffffff811115611b57578182fd5b8501601f81018713611b67578182fd5b611b76878235602084016119f0565b91505092959194509250565b60008060408385031215611b94578182fd5b611b9d83611a66565b915060208301358015158114611bb1578182fd5b809150509250929050565b60008060408385031215611bce578182fd5b611bd783611a66565b946020939093013593505050565b600060208284031215611bf6578081fd5b8135610e2081612010565b600060208284031215611c12578081fd5b8151610e2081612010565b600060208284031215611c2e578081fd5b813567ffffffffffffffff811115611c44578182fd5b8201601f81018413611c54578182fd5b61110d848235602084016119f0565b600060208284031215611c74578081fd5b5035919050565b60008151808452611c93816020860160208601611f18565b601f01601f19169290920160200192915050565b60008351611cb9818460208801611f18565b835190830190611ccd818360208801611f18565b01949350505050565b6001600160a01b0385811682528416602082015260408101839052608060608201819052600090611d0990830184611c7b565b9695505050505050565b60006020808301818452808551808352604092508286019150828160051b870101848801865b83811015611da257603f19898403018552815160a08151818652611d5f82870182611c7b565b838b0151878c0152898401518a88015260608085015160ff9081169189019190915260809485015116939096019290925250509386019390860190600101611d39565b509098975050505050505050565b602081526000610e206020830184611c7b565b60a081526000611dd660a0830188611c7b565b602083019690965250604081019390935260ff918216606084015216608090910152919050565b60208082526032908201527f4552433732313a207472616e7366657220746f206e6f6e20455243373231526560408201527131b2b4bb32b91034b6b83632b6b2b73a32b960711b606082015260800190565b6020808252818101527f4f776e61626c653a2063616c6c6572206973206e6f7420746865206f776e6572604082015260600190565b60208082526031908201527f4552433732313a207472616e736665722063616c6c6572206973206e6f74206f6040820152701ddb995c881b9bdc88185c1c1c9bdd9959607a1b606082015260800190565b60008219821115611ee857611ee8611fce565b500190565b600082611efc57611efc611fe4565b500490565b600082821015611f1357611f13611fce565b500390565b60005b83811015611f33578181015183820152602001611f1b565b83811115610d395750506000910152565b600181811c90821680611f5857607f821691505b60208210811415611f7957634e487b7160e01b600052602260045260246000fd5b50919050565b6000600019821415611f9357611f93611fce565b5060010190565b600060ff821660ff811415611fb157611fb1611fce565b60010192915050565b600082611fc957611fc9611fe4565b500690565b634e487b7160e01b600052601160045260246000fd5b634e487b7160e01b600052601260045260246000fd5b634e487b7160e01b600052604160045260246000fd5b6001600160e01b031981168114610f1557600080fdfea2646970667358221220859f837aa55c6ea71231f48758ea42251622330c9811be0f09ff3cd6e760d40a64736f6c63430008040033",
  "linkReferences": {},
  "deployedLinkReferences": {}
}