{
  "_format": "hh-sol-artifact-1",
  "contractName": "MageToken",
  "sourceName": "contracts/MageToken.sol",
  "abi": [
    {
      "inputs": [],
      "stateMutability": "nonpayable",
      "type": "constructor"
    },
    {
      "anonymous": false,
      "inputs": [
        {
          "indexed": true,
          "internalType": "address",
          "name": "owner",
          "type": "address"
        },
        {
          "indexed": true,
          "internalType": "address",
          "name": "approved",
          "type": "address"
        },
        {
          "indexed": true,
          "internalType": "uint256",
          "name": "tokenId",
          "type": "uint256"
        }
      ],
      "name": "Approval",
      "type": "event"
    },
    {
      "anonymous": false,
      "inputs": [
        {
          "indexed": true,
          "internalType": "address",
          "name": "owner",
          "type": "address"
        },
        {
          "indexed": true,
          "internalType": "address",
          "name": "operator",
          "type": "address"
        },
        {
          "indexed": false,
          "internalType": "bool",
          "name": "approved",
          "type": "bool"
        }
      ],
      "name": "ApprovalForAll",
      "type": "event"
    },
    {
      "anonymous": false,
      "inputs": [
        {
          "indexed": true,
          "internalType": "address",
          "name": "owner",
          "type": "address"
        },
        {
          "indexed": false,
          "internalType": "uint256",
          "name": "id",
          "type": "uint256"
        },
        {
          "indexed": false,
          "internalType": "uint256",
          "name": "dna",
          "type": "uint256"
        }
      ],
      "name": "NewMage",
      "type": "event"
    },
    {
      "anonymous": false,
      "inputs": [
        {
          "indexed": true,
          "internalType": "address",
          "name": "previousOwner",
          "type": "address"
        },
        {
          "indexed": true,
          "internalType": "address",
          "name": "newOwner",
          "type": "address"
        }
      ],
      "name": "OwnershipTransferred",
      "type": "event"
    },
    {
      "anonymous": false,
      "inputs": [
        {
          "indexed": false,
          "internalType": "address",
          "name": "account",
          "type": "address"
        }
      ],
      "name": "Paused",
      "type": "event"
    },
    {
      "anonymous": false,
      "inputs": [
        {
          "indexed": true,
          "internalType": "address",
          "name": "from",
          "type": "address"
        },
        {
          "indexed": true,
          "internalType": "address",
          "name": "to",
          "type": "address"
        },
        {
          "indexed": true,
          "internalType": "uint256",
          "name": "tokenId",
          "type": "uint256"
        }
      ],
      "name": "Transfer",
      "type": "event"
    },
    {
      "anonymous": false,
      "inputs": [
        {
          "indexed": false,
          "internalType": "address",
          "name": "account",
          "type": "address"
        }
      ],
      "name": "Unpaused",
      "type": "event"
    },
    {
      "inputs": [
        {
          "internalType": "address",
          "name": "to",
          "type": "address"
        },
        {
          "internalType": "uint256",
          "name": "tokenId",
          "type": "uint256"
        }
      ],
      "name": "approve",
      "outputs": [],
      "stateMutability": "nonpayable",
      "type": "function"
    },
    {
      "inputs": [
        {
          "internalType": "address",
          "name": "owner",
          "type": "address"
        }
      ],
      "name": "balanceOf",
      "outputs": [
        {
          "internalType": "uint256",
          "name": "",
          "type": "uint256"
        }
      ],
      "stateMutability": "view",
      "type": "function"
    },
    {
      "inputs": [
        {
          "internalType": "string",
          "name": "_name",
          "type": "string"
        },
        {
          "internalType": "string",
          "name": "tokenURI",
          "type": "string"
        }
      ],
      "name": "createRandomMage",
      "outputs": [],
      "stateMutability": "payable",
      "type": "function"
    },
    {
      "inputs": [
        {
          "internalType": "uint256",
          "name": "tokenId",
          "type": "uint256"
        }
      ],
      "name": "getApproved",
      "outputs": [
        {
          "internalType": "address",
          "name": "",
          "type": "address"
        }
      ],
      "stateMutability": "view",
      "type": "function"
    },
    {
      "inputs": [],
      "name": "getMages",
      "outputs": [
        {
          "components": [
            {
              "internalType": "string",
              "name": "name",
              "type": "string"
            },
            {
              "internalType": "uint256",
              "name": "id",
              "type": "uint256"
            },
            {
              "internalType": "uint256",
              "name": "dna",
              "type": "uint256"
            },
            {
              "internalType": "uint8",
              "name": "level",
              "type": "uint8"
            },
            {
              "internalType": "uint8",
              "name": "rarity",
              "type": "uint8"
            }
          ],
          "internalType": "struct MageToken.Mage[]",
          "name": "",
          "type": "tuple[]"
        }
      ],
      "stateMutability": "view",
      "type": "function"
    },
    {
      "inputs": [],
      "name": "getMintingPrice",
      "outputs": [
        {
          "internalType": "uint256",
          "name": "",
          "type": "uint256"
        }
      ],
      "stateMutability": "view",
      "type": "function"
    },
    {
      "inputs": [
        {
          "internalType": "address",
          "name": "_owner",
          "type": "address"
        }
      ],
      "name": "getOwnerMages",
      "outputs": [
        {
          "components": [
            {
              "internalType": "string",
              "name": "name",
              "type": "string"
            },
            {
              "internalType": "uint256",
              "name": "id",
              "type": "uint256"
            },
            {
              "internalType": "uint256",
              "name": "dna",
              "type": "uint256"
            },
            {
              "internalType": "uint8",
              "name": "level",
              "type": "uint8"
            },
            {
              "internalType": "uint8",
              "name": "rarity",
              "type": "uint8"
            }
          ],
          "internalType": "struct MageToken.Mage[]",
          "name": "",
          "type": "tuple[]"
        }
      ],
      "stateMutability": "view",
      "type": "function"
    },
    {
      "inputs": [
        {
          "internalType": "address",
          "name": "owner",
          "type": "address"
        },
        {
          "internalType": "address",
          "name": "operator",
          "type": "address"
        }
      ],
      "name": "isApprovedForAll",
      "outputs": [
        {
          "internalType": "bool",
          "name": "",
          "type": "bool"
        }
      ],
      "stateMutability": "view",
      "type": "function"
    },
    {
      "inputs": [
        {
          "internalType": "uint256",
          "name": "_mageId",
          "type": "uint256"
        }
      ],
      "name": "levelUp",
      "outputs": [],
      "stateMutability": "nonpayable",
      "type": "function"
    },
    {
      "inputs": [
        {
          "internalType": "uint256",
          "name": "",
          "type": "uint256"
        }
      ],
      "name": "mages",
      "outputs": [
        {
          "internalType": "string",
          "name": "name",
          "type": "string"
        },
        {
          "internalType": "uint256",
          "name": "id",
          "type": "uint256"
        },
        {
          "internalType": "uint256",
          "name": "dna",
          "type": "uint256"
        },
        {
          "internalType": "uint8",
          "name": "level",
          "type": "uint8"
        },
        {
          "internalType": "uint8",
          "name": "rarity",
          "type": "uint8"
        }
      ],
      "stateMutability": "view",
      "type": "function"
    },
    {
      "inputs": [],
      "name": "name",
      "outputs": [
        {
          "internalType": "string",
          "name": "",
          "type": "string"
        }
      ],
      "stateMutability": "view",
      "type": "function"
    },
    {
      "inputs": [],
      "name": "owner",
      "outputs": [
        {
          "internalType": "address",
          "name": "",
          "type": "address"
        }
      ],
      "stateMutability": "view",
      "type": "function"
    },
    {
      "inputs": [
        {
          "internalType": "uint256",
          "name": "tokenId",
          "type": "uint256"
        }
      ],
      "name": "ownerOf",
      "outputs": [
        {
          "internalType": "address",
          "name": "",
          "type": "address"
        }
      ],
      "stateMutability": "view",
      "type": "function"
    },
    {
      "inputs": [],
      "name": "pause",
      "outputs": [],
      "stateMutability": "nonpayable",
      "type": "function"
    },
    {
      "inputs": [],
      "name": "paused",
      "outputs": [
        {
          "internalType": "bool",
          "name": "",
          "type": "bool"
        }
      ],
      "stateMutability": "view",
      "type": "function"
    },
    {
      "inputs": [],
      "name": "renounceOwnership",
      "outputs": [],
      "stateMutability": "nonpayable",
      "type": "function"
    },
    {
      "inputs": [
        {
          "internalType": "address",
          "name": "from",
          "type": "address"
        },
        {
          "internalType": "address",
          "name": "to",
          "type": "address"
        },
        {
          "internalType": "uint256",
          "name": "tokenId",
          "type": "uint256"
        }
      ],
      "name": "safeTransferFrom",
      "outputs": [],
      "stateMutability": "nonpayable",
      "type": "function"
    },
    {
      "inputs": [
        {
          "internalType": "address",
          "name": "from",
          "type": "address"
        },
        {
          "internalType": "address",
          "name": "to",
          "type": "address"
        },
        {
          "internalType": "uint256",
          "name": "tokenId",
          "type": "uint256"
        },
        {
          "internalType": "bytes",
          "name": "_data",
          "type": "bytes"
        }
      ],
      "name": "safeTransferFrom",
      "outputs": [],
      "stateMutability": "nonpayable",
      "type": "function"
    },
    {
      "inputs": [
        {
          "internalType": "address",
          "name": "operator",
          "type": "address"
        },
        {
          "internalType": "bool",
          "name": "approved",
          "type": "bool"
        }
      ],
      "name": "setApprovalForAll",
      "outputs": [],
      "stateMutability": "nonpayable",
      "type": "function"
    },
    {
      "inputs": [
        {
          "internalType": "bytes4",
          "name": "interfaceId",
          "type": "bytes4"
        }
      ],
      "name": "supportsInterface",
      "outputs": [
        {
          "internalType": "bool",
          "name": "",
          "type": "bool"
        }
      ],
      "stateMutability": "view",
      "type": "function"
    },
    {
      "inputs": [],
      "name": "symbol",
      "outputs": [
        {
          "internalType": "string",
          "name": "",
          "type": "string"
        }
      ],
      "stateMutability": "view",
      "type": "function"
    },
    {
      "inputs": [
        {
          "internalType": "uint256",
          "name": "tokenId",
          "type": "uint256"
        }
      ],
      "name": "tokenURI",
      "outputs": [
        {
          "internalType": "string",
          "name": "",
          "type": "string"
        }
      ],
      "stateMutability": "view",
      "type": "function"
    },
    {
      "inputs": [
        {
          "internalType": "address",
          "name": "from",
          "type": "address"
        },
        {
          "internalType": "address",
          "name": "to",
          "type": "address"
        },
        {
          "internalType": "uint256",
          "name": "tokenId",
          "type": "uint256"
        }
      ],
      "name": "transferFrom",
      "outputs": [],
      "stateMutability": "nonpayable",
      "type": "function"
    },
    {
      "inputs": [
        {
          "internalType": "address",
          "name": "newOwner",
          "type": "address"
        }
      ],
      "name": "transferOwnership",
      "outputs": [],
      "stateMutability": "nonpayable",
      "type": "function"
    },
    {
      "inputs": [],
      "name": "unpause",
      "outputs": [],
      "stateMutability": "nonpayable",
      "type": "function"
    },
    {
      "inputs": [
        {
          "internalType": "uint256",
          "name": "_fee",
          "type": "uint256"
        }
      ],
      "name": "updateFee",
      "outputs": [],
      "stateMutability": "nonpayable",
      "type": "function"
    },
    {
      "inputs": [],
      "name": "withdraw",
      "outputs": [],
      "stateMutability": "payable",
      "type": "function"
    }
  ],
  "bytecode": "0x60806040526601c6bf526340006009553480156200001c57600080fd5b5060408051808201825260048152634d61676560e01b6020808301918252835180850190945260038452624d474560e81b9084015281519192916200006491600091620000f2565b5080516200007a906001906020840190620000f2565b50506007805460ff1916905550620000923362000098565b620001d5565b600780546001600160a01b03838116610100818102610100600160a81b031985161790945560405193909204169182907f8be0079c531659141344cd1fd0a4f28419497f9722a3daafe3b4186f6b6457e090600090a35050565b828054620001009062000198565b90600052602060002090601f0160209004810192826200012457600085556200016f565b82601f106200013f57805160ff19168380011785556200016f565b828001600101855582156200016f579182015b828111156200016f57825182559160200191906001019062000152565b506200017d92915062000181565b5090565b5b808211156200017d576000815560010162000182565b600181811c90821680620001ad57607f821691505b60208210811415620001cf57634e487b7160e01b600052602260045260246000fd5b50919050565b61252e80620001e56000396000f3fe60806040526004361061019c5760003560e01c806370a08231116100ec578063984e68d61161008a578063c87b56dd11610064578063c87b56dd14610461578063d0269e9414610481578063e985e9c5146104b2578063f2fde38b146104fb57600080fd5b8063984e68d61461040e578063a22cb46514610421578063b88d4fde1461044157600080fd5b80638456cb59116100c65780638456cb59146103a15780638da5cb5b146103b65780639012c4a8146103d957806395d89b41146103f957600080fd5b806370a0823114610349578063715018a61461037757806377d247621461038c57600080fd5b806323b872dd1161015957806342842e0e1161013357806342842e0e146102dc5780635c975abb146102fc5780636352211e14610314578063674c48851461033457600080fd5b806323b872dd1461029f5780633ccfd60b146102bf5780633f4ba83a146102c757600080fd5b806301ffc9a7146101a157806305389eaf146101d657806306fdde0314610203578063081812fc14610225578063095ea7b31461025d5780630ce90ec21461027f575b600080fd5b3480156101ad57600080fd5b506101c16101bc36600461209c565b61051b565b60405190151581526020015b60405180910390f35b3480156101e257600080fd5b506101f66101f1366004611f39565b61056d565b6040516101cd91906121e5565b34801561020f57600080fd5b5061021861078f565b6040516101cd9190612282565b34801561023157600080fd5b50610245610240366004612135565b610821565b6040516001600160a01b0390911681526020016101cd565b34801561026957600080fd5b5061027d610278366004612073565b6108ae565b005b34801561028b57600080fd5b5061027d61029a366004612135565b6109c4565b3480156102ab57600080fd5b5061027d6102ba366004611f85565b610a49565b61027d610a7a565b3480156102d357600080fd5b5061027d610afa565b3480156102e857600080fd5b5061027d6102f7366004611f85565b610b34565b34801561030857600080fd5b5060075460ff166101c1565b34801561032057600080fd5b5061024561032f366004612135565b610b4f565b34801561034057600080fd5b506101f6610bc6565b34801561035557600080fd5b50610369610364366004611f39565b610cec565b6040519081526020016101cd565b34801561038357600080fd5b5061027d610d73565b34801561039857600080fd5b50600954610369565b3480156103ad57600080fd5b5061027d610dad565b3480156103c257600080fd5b5060075461010090046001600160a01b0316610245565b3480156103e557600080fd5b5061027d6103f4366004612135565b610de5565b34801561040557600080fd5b50610218610e1a565b61027d61041c3660046120d4565b610e29565b34801561042d57600080fd5b5061027d61043c366004612039565b610e88565b34801561044d57600080fd5b5061027d61045c366004611fc0565b610e93565b34801561046d57600080fd5b5061021861047c366004612135565b610ecb565b34801561048d57600080fd5b506104a161049c366004612135565b611042565b6040516101cd959493929190612295565b3480156104be57600080fd5b506101c16104cd366004611f53565b6001600160a01b03918216600090815260056020908152604080832093909416825291909152205460ff1690565b34801561050757600080fd5b5061027d610516366004611f39565b611118565b60006001600160e01b031982166380ac58cd60e01b148061054c57506001600160e01b03198216635b5e139f60e01b145b8061056757506301ffc9a760e01b6001600160e01b03198316145b92915050565b6060600061057a83610cec565b67ffffffffffffffff8111156105a057634e487b7160e01b600052604160045260246000fd5b60405190808252806020026020018201604052801561060957816020015b6105f66040518060a00160405280606081526020016000815260200160008152602001600060ff168152602001600060ff1681525090565b8152602001906001900390816105be5790505b5090506000805b600a5481101561078657846001600160a01b031661062d82610b4f565b6001600160a01b0316141561077457600a818154811061065d57634e487b7160e01b600052603260045260246000fd5b90600052602060002090600402016040518060a001604052908160008201805461068690612416565b80601f01602080910402602001604051908101604052809291908181526020018280546106b290612416565b80156106ff5780601f106106d4576101008083540402835291602001916106ff565b820191906000526020600020905b8154815290600101906020018083116106e257829003601f168201915b5050509183525050600182015460208201526002820154604082015260039091015460ff808216606084015261010090910416608090910152835184908490811061075a57634e487b7160e01b600052603260045260246000fd5b6020026020010181905250818061077090612451565b9250505b8061077e81612451565b915050610610565b50909392505050565b60606000805461079e90612416565b80601f01602080910402602001604051908101604052809291908181526020018280546107ca90612416565b80156108175780601f106107ec57610100808354040283529160200191610817565b820191906000526020600020905b8154815290600101906020018083116107fa57829003601f168201915b5050505050905090565b600061082c826111b9565b6108925760405162461bcd60e51b815260206004820152602c60248201527f4552433732313a20617070726f76656420717565727920666f72206e6f6e657860448201526b34b9ba32b73a103a37b5b2b760a11b60648201526084015b60405180910390fd5b506000908152600460205260409020546001600160a01b031690565b60006108b982610b4f565b9050806001600160a01b0316836001600160a01b031614156109275760405162461bcd60e51b815260206004820152602160248201527f4552433732313a20617070726f76616c20746f2063757272656e74206f776e656044820152603960f91b6064820152608401610889565b336001600160a01b0382161480610943575061094381336104cd565b6109b55760405162461bcd60e51b815260206004820152603860248201527f4552433732313a20617070726f76652063616c6c6572206973206e6f74206f7760448201527f6e6572206e6f7220617070726f76656420666f7220616c6c00000000000000006064820152608401610889565b6109bf83836111d6565b505050565b336109ce82610b4f565b6001600160a01b0316146109e157600080fd5b6000600a8281548110610a0457634e487b7160e01b600052603260045260246000fd5b6000918252602082206003600490920201908101805491935060ff90911691610a2c8361246c565b91906101000a81548160ff021916908360ff160217905550505050565b610a533382611244565b610a6f5760405162461bcd60e51b815260040161088990612356565b6109bf83838361132a565b6007546001600160a01b03610100909104163314610aaa5760405162461bcd60e51b815260040161088990612321565b60075460009061010090046001600160a01b03166040519091506001600160a01b038216904780156108fc02916000818181858888f19350505050158015610af6573d6000803e3d6000fd5b5050565b6007546001600160a01b03610100909104163314610b2a5760405162461bcd60e51b815260040161088990612321565b610b326114ca565b565b6109bf83838360405180602001604052806000815250610e93565b6000818152600260205260408120546001600160a01b0316806105675760405162461bcd60e51b815260206004820152602960248201527f4552433732313a206f776e657220717565727920666f72206e6f6e657869737460448201526832b73a103a37b5b2b760b91b6064820152608401610889565b6060600a805480602002602001604051908101604052809291908181526020016000905b82821015610ce357838290600052602060002090600402016040518060a0016040529081600082018054610c1d90612416565b80601f0160208091040260200160405190810160405280929190818152602001828054610c4990612416565b8015610c965780601f10610c6b57610100808354040283529160200191610c96565b820191906000526020600020905b815481529060010190602001808311610c7957829003601f168201915b50505091835250506001828101546020808401919091526002840154604084015260039093015460ff80821660608501526101009091041660809092019190915291835292019101610bea565b50505050905090565b60006001600160a01b038216610d575760405162461bcd60e51b815260206004820152602a60248201527f4552433732313a2062616c616e636520717565727920666f7220746865207a65604482015269726f206164647265737360b01b6064820152608401610889565b506001600160a01b031660009081526003602052604090205490565b6007546001600160a01b03610100909104163314610da35760405162461bcd60e51b815260040161088990612321565b610b32600061155d565b6007546001600160a01b03610100909104163314610ddd5760405162461bcd60e51b815260040161088990612321565b610b326115b7565b6007546001600160a01b03610100909104163314610e155760405162461bcd60e51b815260040161088990612321565b600955565b60606001805461079e90612416565b60075460ff1615610e6f5760405162461bcd60e51b815260206004820152601060248201526f14185d5cd8589b194e881c185d5cd95960821b6044820152606401610889565b600954341015610e7e57600080fd5b610af68282611632565b610af633838361178e565b610e9d3383611244565b610eb95760405162461bcd60e51b815260040161088990612356565b610ec58484848461185d565b50505050565b6060610ed6826111b9565b610f3c5760405162461bcd60e51b815260206004820152603160248201527f45524337323155524953746f726167653a2055524920717565727920666f72206044820152703737b732bc34b9ba32b73a103a37b5b2b760791b6064820152608401610889565b60008281526006602052604081208054610f5590612416565b80601f0160208091040260200160405190810160405280929190818152602001828054610f8190612416565b8015610fce5780601f10610fa357610100808354040283529160200191610fce565b820191906000526020600020905b815481529060010190602001808311610fb157829003601f168201915b505050505090506000610fec60408051602081019091526000815290565b9050805160001415610fff575092915050565b815115611031578082604051602001611019929190612179565b60405160208183030381529060405292505050919050565b61103a84611890565b949350505050565b600a818154811061105257600080fd5b906000526020600020906004020160009150905080600001805461107590612416565b80601f01602080910402602001604051908101604052809291908181526020018280546110a190612416565b80156110ee5780601f106110c3576101008083540402835291602001916110ee565b820191906000526020600020905b8154815290600101906020018083116110d157829003601f168201915b50505050600183015460028401546003909401549293909290915060ff8082169161010090041685565b6007546001600160a01b036101009091041633146111485760405162461bcd60e51b815260040161088990612321565b6001600160a01b0381166111ad5760405162461bcd60e51b815260206004820152602660248201527f4f776e61626c653a206e6577206f776e657220697320746865207a65726f206160448201526564647265737360d01b6064820152608401610889565b6111b68161155d565b50565b6000908152600260205260409020546001600160a01b0316151590565b600081815260046020526040902080546001600160a01b0319166001600160a01b038416908117909155819061120b82610b4f565b6001600160a01b03167f8c5be1e5ebec7d5bd14f71427d1e84f3dd0314c0f7b2291e5b200ac8c7c3b92560405160405180910390a45050565b600061124f826111b9565b6112b05760405162461bcd60e51b815260206004820152602c60248201527f4552433732313a206f70657261746f7220717565727920666f72206e6f6e657860448201526b34b9ba32b73a103a37b5b2b760a11b6064820152608401610889565b60006112bb83610b4f565b9050806001600160a01b0316846001600160a01b031614806112f65750836001600160a01b03166112eb84610821565b6001600160a01b0316145b8061103a57506001600160a01b0380821660009081526005602090815260408083209388168352929052205460ff1661103a565b826001600160a01b031661133d82610b4f565b6001600160a01b0316146113a55760405162461bcd60e51b815260206004820152602960248201527f4552433732313a207472616e73666572206f6620746f6b656e2074686174206960448201526839903737ba1037bbb760b91b6064820152608401610889565b6001600160a01b0382166114075760405162461bcd60e51b8152602060048201526024808201527f4552433732313a207472616e7366657220746f20746865207a65726f206164646044820152637265737360e01b6064820152608401610889565b6114126000826111d6565b6001600160a01b038316600090815260036020526040812080546001929061143b9084906123d3565b90915550506001600160a01b03821660009081526003602052604081208054600192906114699084906123a7565b909155505060008181526002602052604080822080546001600160a01b0319166001600160a01b0386811691821790925591518493918716917fddf252ad1be2c89b69c2b068fc378daa952ba7f163c4a11628f55a4df523b3ef91a4505050565b60075460ff166115135760405162461bcd60e51b815260206004820152601460248201527314185d5cd8589b194e881b9bdd081c185d5cd95960621b6044820152606401610889565b6007805460ff191690557f5db9ee0a495bf2e6ff9c91a7834c1ba4fdd244a5e8aa4e537bd38aeae4b073aa335b6040516001600160a01b03909116815260200160405180910390a1565b600780546001600160a01b03838116610100818102610100600160a81b031985161790945560405193909204169182907f8be0079c531659141344cd1fd0a4f28419497f9722a3daafe3b4186f6b6457e090600090a35050565b60075460ff16156115fd5760405162461bcd60e51b815260206004820152601060248201526f14185d5cd8589b194e881c185d5cd95960821b6044820152606401610889565b6007805460ff191660011790557f62e78cea01bee320cd4e420270b5ea74000d11b0c9f74754ebdbfc544b05a2586115403390565b600061163e6064611968565b90506000611652662386f26fc10000611968565b6040805160a081018252868152600854602082018190529181018390526001606082015260ff8516608082015291925061168c90856119bd565b600a80546001810182556000919091528151805183926004027fc65a7bb8d6351c1cf70c95a316cc6a92839c986682d98bc35f958f4883f9d2a801916116d791839160200190611def565b50602082015160018201556040820151600282015560608201516003909101805460809093015160ff9081166101000261ffff19909416921691909117919091179055600854611728903390611a48565b611734600854856119bd565b600854604080519182526020820184905233917fee95c65b001b4c3e33850943b2b6501f022e7414fd2722be8ab4b6960a8027fa910160405180910390a26008805490600061178283612451565b91905055505050505050565b816001600160a01b0316836001600160a01b031614156117f05760405162461bcd60e51b815260206004820152601960248201527f4552433732313a20617070726f766520746f2063616c6c6572000000000000006044820152606401610889565b6001600160a01b03838116600081815260056020908152604080832094871680845294825291829020805460ff191686151590811790915591519182527f17307eab39ab6107e8899845ad3d59bd9653f200f220920489ca2b5937696c31910160405180910390a3505050565b61186884848461132a565b61187484848484611a62565b610ec55760405162461bcd60e51b8152600401610889906122cf565b606061189b826111b9565b6118ff5760405162461bcd60e51b815260206004820152602f60248201527f4552433732314d657461646174613a2055524920717565727920666f72206e6f60448201526e3732bc34b9ba32b73a103a37b5b2b760891b6064820152608401610889565b600061191660408051602081019091526000815290565b905060008151116119365760405180602001604052806000815250611961565b8061194084611b6f565b604051602001611951929190612179565b6040516020818303038152906040525b9392505050565b600080423360405160200161199992919091825260601b6bffffffffffffffffffffffff1916602082015260340190565b60408051601f1981840301815291905280516020909101209050611961838261248c565b6119c6826111b9565b611a295760405162461bcd60e51b815260206004820152602e60248201527f45524337323155524953746f726167653a2055524920736574206f66206e6f6e60448201526d32bc34b9ba32b73a103a37b5b2b760911b6064820152608401610889565b600082815260066020908152604090912082516109bf92840190611def565b610af6828260405180602001604052806000815250611c89565b60006001600160a01b0384163b15611b6457604051630a85bd0160e11b81526001600160a01b0385169063150b7a0290611aa69033908990889088906004016121a8565b602060405180830381600087803b158015611ac057600080fd5b505af1925050508015611af0575060408051601f3d908101601f19168201909252611aed918101906120b8565b60015b611b4a573d808015611b1e576040519150601f19603f3d011682016040523d82523d6000602084013e611b23565b606091505b508051611b425760405162461bcd60e51b8152600401610889906122cf565b805181602001fd5b6001600160e01b031916630a85bd0160e11b14905061103a565b506001949350505050565b606081611b935750506040805180820190915260018152600360fc1b602082015290565b8160005b8115611bbd5780611ba781612451565b9150611bb69050600a836123bf565b9150611b97565b60008167ffffffffffffffff811115611be657634e487b7160e01b600052604160045260246000fd5b6040519080825280601f01601f191660200182016040528015611c10576020820181803683370190505b5090505b841561103a57611c256001836123d3565b9150611c32600a8661248c565b611c3d9060306123a7565b60f81b818381518110611c6057634e487b7160e01b600052603260045260246000fd5b60200101906001600160f81b031916908160001a905350611c82600a866123bf565b9450611c14565b611c938383611cbc565b611ca06000848484611a62565b6109bf5760405162461bcd60e51b8152600401610889906122cf565b6001600160a01b038216611d125760405162461bcd60e51b815260206004820181905260248201527f4552433732313a206d696e7420746f20746865207a65726f20616464726573736044820152606401610889565b611d1b816111b9565b15611d685760405162461bcd60e51b815260206004820152601c60248201527f4552433732313a20746f6b656e20616c7265616479206d696e746564000000006044820152606401610889565b6001600160a01b0382166000908152600360205260408120805460019290611d919084906123a7565b909155505060008181526002602052604080822080546001600160a01b0319166001600160a01b03861690811790915590518392907fddf252ad1be2c89b69c2b068fc378daa952ba7f163c4a11628f55a4df523b3ef908290a45050565b828054611dfb90612416565b90600052602060002090601f016020900481019282611e1d5760008555611e63565b82601f10611e3657805160ff1916838001178555611e63565b82800160010185558215611e63579182015b82811115611e63578251825591602001919060010190611e48565b50611e6f929150611e73565b5090565b5b80821115611e6f5760008155600101611e74565b600067ffffffffffffffff80841115611ea357611ea36124cc565b604051601f8501601f19908116603f01168101908282118183101715611ecb57611ecb6124cc565b81604052809350858152868686011115611ee457600080fd5b858560208301376000602087830101525050509392505050565b80356001600160a01b0381168114611f1557600080fd5b919050565b600082601f830112611f2a578081fd5b61196183833560208501611e88565b600060208284031215611f4a578081fd5b61196182611efe565b60008060408385031215611f65578081fd5b611f6e83611efe565b9150611f7c60208401611efe565b90509250929050565b600080600060608486031215611f99578081fd5b611fa284611efe565b9250611fb060208501611efe565b9150604084013590509250925092565b60008060008060808587031215611fd5578081fd5b611fde85611efe565b9350611fec60208601611efe565b925060408501359150606085013567ffffffffffffffff81111561200e578182fd5b8501601f8101871361201e578182fd5b61202d87823560208401611e88565b91505092959194509250565b6000806040838503121561204b578182fd5b61205483611efe565b915060208301358015158114612068578182fd5b809150509250929050565b60008060408385031215612085578182fd5b61208e83611efe565b946020939093013593505050565b6000602082840312156120ad578081fd5b8135611961816124e2565b6000602082840312156120c9578081fd5b8151611961816124e2565b600080604083850312156120e6578182fd5b823567ffffffffffffffff808211156120fd578384fd5b61210986838701611f1a565b9350602085013591508082111561211e578283fd5b5061212b85828601611f1a565b9150509250929050565b600060208284031215612146578081fd5b5035919050565b600081518084526121658160208601602086016123ea565b601f01601f19169290920160200192915050565b6000835161218b8184602088016123ea565b83519083019061219f8183602088016123ea565b01949350505050565b6001600160a01b03858116825284166020820152604081018390526080606082018190526000906121db9083018461214d565b9695505050505050565b60006020808301818452808551808352604092508286019150828160051b870101848801865b8381101561227457603f19898403018552815160a081518186526122318287018261214d565b838b0151878c0152898401518a88015260608085015160ff908116918901919091526080948501511693909601929092525050938601939086019060010161220b565b509098975050505050505050565b602081526000611961602083018461214d565b60a0815260006122a860a083018861214d565b602083019690965250604081019390935260ff918216606084015216608090910152919050565b60208082526032908201527f4552433732313a207472616e7366657220746f206e6f6e20455243373231526560408201527131b2b4bb32b91034b6b83632b6b2b73a32b960711b606082015260800190565b6020808252818101527f4f776e61626c653a2063616c6c6572206973206e6f7420746865206f776e6572604082015260600190565b60208082526031908201527f4552433732313a207472616e736665722063616c6c6572206973206e6f74206f6040820152701ddb995c881b9bdc88185c1c1c9bdd9959607a1b606082015260800190565b600082198211156123ba576123ba6124a0565b500190565b6000826123ce576123ce6124b6565b500490565b6000828210156123e5576123e56124a0565b500390565b60005b838110156124055781810151838201526020016123ed565b83811115610ec55750506000910152565b600181811c9082168061242a57607f821691505b6020821081141561244b57634e487b7160e01b600052602260045260246000fd5b50919050565b6000600019821415612465576124656124a0565b5060010190565b600060ff821660ff811415612483576124836124a0565b60010192915050565b60008261249b5761249b6124b6565b500690565b634e487b7160e01b600052601160045260246000fd5b634e487b7160e01b600052601260045260246000fd5b634e487b7160e01b600052604160045260246000fd5b6001600160e01b0319811681146111b657600080fdfea2646970667358221220251439fc4b0c58773018841a884b570d3ff5bba0340a448c80d4ba1fd5c94e7c64736f6c63430008040033",
  "linkReferences": {},
  "deployedLinkReferences": {}
}